{
  "_format": "hh-sol-artifact-1",
  "contractName": "ChainSignatures",
  "sourceName": "contracts/ChainSignatures.sol",
  "abi": [
    {
      "inputs": [
        {
          "internalType": "address",
          "name": "_mpc_network",
          "type": "address"
        },
        {
          "internalType": "uint256",
          "name": "_signatureDeposit",
          "type": "uint256"
        }
      ],
      "stateMutability": "nonpayable",
      "type": "constructor"
    },
    {
      "inputs": [],
      "name": "AccessControlBadConfirmation",
      "type": "error"
    },
    {
      "inputs": [
        {
          "internalType": "address",
          "name": "account",
          "type": "address"
        },
        {
          "internalType": "bytes32",
          "name": "neededRole",
          "type": "bytes32"
        }
      ],
      "name": "AccessControlUnauthorizedAccount",
      "type": "error"
    },
    {
      "anonymous": false,
      "inputs": [
        {
          "indexed": true,
          "internalType": "bytes32",
          "name": "role",
          "type": "bytes32"
        },
        {
          "indexed": true,
          "internalType": "bytes32",
          "name": "previousAdminRole",
          "type": "bytes32"
        },
        {
          "indexed": true,
          "internalType": "bytes32",
          "name": "newAdminRole",
          "type": "bytes32"
        }
      ],
      "name": "RoleAdminChanged",
      "type": "event"
    },
    {
      "anonymous": false,
      "inputs": [
        {
          "indexed": true,
          "internalType": "bytes32",
          "name": "role",
          "type": "bytes32"
        },
        {
          "indexed": true,
          "internalType": "address",
          "name": "account",
          "type": "address"
        },
        {
          "indexed": true,
          "internalType": "address",
          "name": "sender",
          "type": "address"
        }
      ],
      "name": "RoleGranted",
      "type": "event"
    },
    {
      "anonymous": false,
      "inputs": [
        {
          "indexed": true,
          "internalType": "bytes32",
          "name": "role",
          "type": "bytes32"
        },
        {
          "indexed": true,
          "internalType": "address",
          "name": "account",
          "type": "address"
        },
        {
          "indexed": true,
          "internalType": "address",
          "name": "sender",
          "type": "address"
        }
      ],
      "name": "RoleRevoked",
      "type": "event"
    },
    {
      "anonymous": false,
      "inputs": [
        {
          "indexed": true,
          "internalType": "bytes32",
          "name": "requestId",
          "type": "bytes32"
        },
        {
          "indexed": false,
          "internalType": "address",
          "name": "responder",
          "type": "address"
        },
        {
          "indexed": false,
          "internalType": "string",
          "name": "error",
          "type": "string"
        }
      ],
      "name": "SignatureError",
      "type": "event"
    },
    {
      "anonymous": false,
      "inputs": [
        {
          "indexed": false,
          "internalType": "address",
          "name": "sender",
          "type": "address"
        },
        {
          "indexed": false,
          "internalType": "bytes32",
          "name": "payload",
          "type": "bytes32"
        },
        {
          "indexed": false,
          "internalType": "uint32",
          "name": "keyVersion",
          "type": "uint32"
        },
        {
          "indexed": false,
          "internalType": "uint256",
          "name": "deposit",
          "type": "uint256"
        },
        {
          "indexed": false,
          "internalType": "uint256",
          "name": "chainId",
          "type": "uint256"
        },
        {
          "indexed": false,
          "internalType": "string",
          "name": "path",
          "type": "string"
        },
        {
          "indexed": false,
          "internalType": "string",
          "name": "algo",
          "type": "string"
        },
        {
          "indexed": false,
          "internalType": "string",
          "name": "dest",
          "type": "string"
        },
        {
          "indexed": false,
          "internalType": "string",
          "name": "params",
          "type": "string"
        }
      ],
      "name": "SignatureRequested",
      "type": "event"
    },
    {
      "anonymous": false,
      "inputs": [
        {
          "indexed": true,
          "internalType": "bytes32",
          "name": "requestId",
          "type": "bytes32"
        },
        {
          "indexed": false,
          "internalType": "address",
          "name": "responder",
          "type": "address"
        },
        {
          "components": [
            {
              "components": [
                {
                  "internalType": "uint256",
                  "name": "x",
                  "type": "uint256"
                },
                {
                  "internalType": "uint256",
                  "name": "y",
                  "type": "uint256"
                }
              ],
              "internalType": "struct ChainSignatures.AffinePoint",
              "name": "bigR",
              "type": "tuple"
            },
            {
              "internalType": "uint256",
              "name": "s",
              "type": "uint256"
            },
            {
              "internalType": "uint8",
              "name": "recoveryId",
              "type": "uint8"
            }
          ],
          "indexed": false,
          "internalType": "struct ChainSignatures.Signature",
          "name": "signature",
          "type": "tuple"
        }
      ],
      "name": "SignatureResponded",
      "type": "event"
    },
    {
      "anonymous": false,
      "inputs": [
        {
          "indexed": true,
          "internalType": "address",
          "name": "owner",
          "type": "address"
        },
        {
          "indexed": false,
          "internalType": "uint256",
          "name": "amount",
          "type": "uint256"
        }
      ],
      "name": "Withdraw",
      "type": "event"
    },
    {
      "inputs": [],
      "name": "DEFAULT_ADMIN_ROLE",
      "outputs": [
        {
          "internalType": "bytes32",
          "name": "",
          "type": "bytes32"
        }
      ],
      "stateMutability": "view",
      "type": "function"
    },
    {
      "inputs": [
        {
          "internalType": "bytes32",
          "name": "role",
          "type": "bytes32"
        }
      ],
      "name": "getRoleAdmin",
      "outputs": [
        {
          "internalType": "bytes32",
          "name": "",
          "type": "bytes32"
        }
      ],
      "stateMutability": "view",
      "type": "function"
    },
    {
      "inputs": [],
      "name": "getSignatureDeposit",
      "outputs": [
        {
          "internalType": "uint256",
          "name": "",
          "type": "uint256"
        }
      ],
      "stateMutability": "view",
      "type": "function"
    },
    {
      "inputs": [
        {
          "internalType": "bytes32",
          "name": "role",
          "type": "bytes32"
        },
        {
          "internalType": "address",
          "name": "account",
          "type": "address"
        }
      ],
      "name": "grantRole",
      "outputs": [],
      "stateMutability": "nonpayable",
      "type": "function"
    },
    {
      "inputs": [
        {
          "internalType": "bytes32",
          "name": "role",
          "type": "bytes32"
        },
        {
          "internalType": "address",
          "name": "account",
          "type": "address"
        }
      ],
      "name": "hasRole",
      "outputs": [
        {
          "internalType": "bool",
          "name": "",
          "type": "bool"
        }
      ],
      "stateMutability": "view",
      "type": "function"
    },
    {
      "inputs": [
        {
          "internalType": "bytes32",
          "name": "role",
          "type": "bytes32"
        },
        {
          "internalType": "address",
          "name": "callerConfirmation",
          "type": "address"
        }
      ],
      "name": "renounceRole",
      "outputs": [],
      "stateMutability": "nonpayable",
      "type": "function"
    },
    {
      "inputs": [
        {
          "components": [
            {
              "internalType": "bytes32",
              "name": "requestId",
              "type": "bytes32"
            },
            {
              "components": [
                {
                  "components": [
                    {
                      "internalType": "uint256",
                      "name": "x",
                      "type": "uint256"
                    },
                    {
                      "internalType": "uint256",
                      "name": "y",
                      "type": "uint256"
                    }
                  ],
                  "internalType": "struct ChainSignatures.AffinePoint",
                  "name": "bigR",
                  "type": "tuple"
                },
                {
                  "internalType": "uint256",
                  "name": "s",
                  "type": "uint256"
                },
                {
                  "internalType": "uint8",
                  "name": "recoveryId",
                  "type": "uint8"
                }
              ],
              "internalType": "struct ChainSignatures.Signature",
              "name": "signature",
              "type": "tuple"
            }
          ],
          "internalType": "struct ChainSignatures.Response[]",
          "name": "_responses",
          "type": "tuple[]"
        }
      ],
      "name": "respond",
      "outputs": [],
      "stateMutability": "nonpayable",
      "type": "function"
    },
    {
      "inputs": [
        {
          "components": [
            {
              "internalType": "bytes32",
              "name": "requestId",
              "type": "bytes32"
            },
            {
              "internalType": "string",
              "name": "errorMessage",
              "type": "string"
            }
          ],
          "internalType": "struct ChainSignatures.ErrorResponse[]",
          "name": "_errors",
          "type": "tuple[]"
        }
      ],
      "name": "respondError",
      "outputs": [],
      "stateMutability": "nonpayable",
      "type": "function"
    },
    {
      "inputs": [
        {
          "internalType": "bytes32",
          "name": "role",
          "type": "bytes32"
        },
        {
          "internalType": "address",
          "name": "account",
          "type": "address"
        }
      ],
      "name": "revokeRole",
      "outputs": [],
      "stateMutability": "nonpayable",
      "type": "function"
    },
    {
      "inputs": [
        {
          "internalType": "uint256",
          "name": "_amount",
          "type": "uint256"
        }
      ],
      "name": "setSignatureDeposit",
      "outputs": [],
      "stateMutability": "nonpayable",
      "type": "function"
    },
    {
      "inputs": [
        {
          "components": [
            {
              "internalType": "bytes32",
              "name": "payload",
              "type": "bytes32"
            },
            {
              "internalType": "string",
              "name": "path",
              "type": "string"
            },
            {
              "internalType": "uint32",
              "name": "keyVersion",
              "type": "uint32"
            },
            {
              "internalType": "string",
              "name": "algo",
              "type": "string"
            },
            {
              "internalType": "string",
              "name": "dest",
              "type": "string"
            },
            {
              "internalType": "string",
              "name": "params",
              "type": "string"
            }
          ],
          "internalType": "struct ChainSignatures.SignRequest",
          "name": "_request",
          "type": "tuple"
        }
      ],
      "name": "sign",
      "outputs": [],
      "stateMutability": "payable",
      "type": "function"
    },
    {
      "inputs": [
        {
          "internalType": "bytes4",
          "name": "interfaceId",
          "type": "bytes4"
        }
      ],
      "name": "supportsInterface",
      "outputs": [
        {
          "internalType": "bool",
          "name": "",
          "type": "bool"
        }
      ],
      "stateMutability": "view",
      "type": "function"
    },
    {
      "inputs": [
        {
          "internalType": "uint256",
          "name": "_amount",
          "type": "uint256"
        },
        {
          "internalType": "address",
          "name": "_receiver",
          "type": "address"
        }
      ],
      "name": "withdraw",
      "outputs": [],
      "stateMutability": "nonpayable",
      "type": "function"
    }
  ],
  "bytecode": "0x608060405234801561001057600080fd5b50604051611b42380380611b428339818101604052810190610032919061025c565b6100456000801b8361005460201b60201c565b5080600181905550505061029c565b6000610066838361015160201b60201c565b61014657600160008085815260200190815260200160002060000160008473ffffffffffffffffffffffffffffffffffffffff1673ffffffffffffffffffffffffffffffffffffffff16815260200190815260200160002060006101000a81548160ff0219169083151502179055506100e36101bb60201b60201c565b73ffffffffffffffffffffffffffffffffffffffff168273ffffffffffffffffffffffffffffffffffffffff16847f2f8788117e7eff1d82e926ec794901d17c78024a50270940304540a733656f0d60405160405180910390a46001905061014b565b600090505b92915050565b600080600084815260200190815260200160002060000160008373ffffffffffffffffffffffffffffffffffffffff1673ffffffffffffffffffffffffffffffffffffffff16815260200190815260200160002060009054906101000a900460ff16905092915050565b600033905090565b600080fd5b600073ffffffffffffffffffffffffffffffffffffffff82169050919050565b60006101f3826101c8565b9050919050565b610203816101e8565b811461020e57600080fd5b50565b600081519050610220816101fa565b92915050565b6000819050919050565b61023981610226565b811461024457600080fd5b50565b60008151905061025681610230565b92915050565b60008060408385031215610273576102726101c3565b5b600061028185828601610211565b925050602061029285828601610247565b9150509250929050565b611897806102ab6000396000f3fe6080604052600436106100c15760003560e01c80635f45af881161007f578063a217fddf11610059578063a217fddf14610266578063ae650b9514610291578063d547741f146102bc578063fb0dc126146102e5576100c1565b80635f45af88146101e457806391d148541461020d578063a03b5c3b1461024a576100c1565b8062f714ce146100c657806301ffc9a7146100ef578063248a9ca31461012c5780632f2ff15d1461016957806336568abe1461019257806343ec0d4c146101bb575b600080fd5b3480156100d257600080fd5b506100ed60048036038101906100e89190610c08565b61030e565b005b3480156100fb57600080fd5b5061011660048036038101906101119190610ca0565b6104cd565b6040516101239190610ce8565b60405180910390f35b34801561013857600080fd5b50610153600480360381019061014e9190610d39565b610547565b6040516101609190610d75565b60405180910390f35b34801561017557600080fd5b50610190600480360381019061018b9190610d90565b610566565b005b34801561019e57600080fd5b506101b960048036038101906101b49190610d90565b610588565b005b3480156101c757600080fd5b506101e260048036038101906101dd9190610e35565b610603565b005b3480156101f057600080fd5b5061020b60048036038101906102069190610e82565b6106b9565b005b34801561021957600080fd5b50610234600480360381019061022f9190610d90565b6106d1565b6040516102419190610ce8565b60405180910390f35b610264600480360381019061025f9190611146565b61073b565b005b34801561027257600080fd5b5061027b6107e2565b6040516102889190610d75565b60405180910390f35b34801561029d57600080fd5b506102a66107e9565b6040516102b3919061119e565b60405180910390f35b3480156102c857600080fd5b506102e360048036038101906102de9190610d90565b6107f3565b005b3480156102f157600080fd5b5061030c6004803603810190610307919061120f565b610815565b005b6000801b61031b816108a6565b600073ffffffffffffffffffffffffffffffffffffffff168273ffffffffffffffffffffffffffffffffffffffff160361038a576040517f08c379a0000000000000000000000000000000000000000000000000000000008152600401610381906112b9565b60405180910390fd5b478311156103cd576040517f08c379a00000000000000000000000000000000000000000000000000000000081526004016103c49061134b565b60405180910390fd5b60008273ffffffffffffffffffffffffffffffffffffffff16846040516103f39061139c565b60006040518083038185875af1925050503d8060008114610430576040519150601f19603f3d011682016040523d82523d6000602084013e610435565b606091505b5050905080610479576040517f08c379a0000000000000000000000000000000000000000000000000000000008152600401610470906113fd565b60405180910390fd5b8273ffffffffffffffffffffffffffffffffffffffff167f884edad9ce6fa2440d8a54cc123490eb96d2768479d49ff9c7366125a9424364856040516104bf919061119e565b60405180910390a250505050565b60007f7965db0b000000000000000000000000000000000000000000000000000000007bffffffffffffffffffffffffffffffffffffffffffffffffffffffff1916827bffffffffffffffffffffffffffffffffffffffffffffffffffffffff19161480610540575061053f826108ba565b5b9050919050565b6000806000838152602001908152602001600020600101549050919050565b61056f82610547565b610578816108a6565b6105828383610924565b50505050565b610590610a15565b73ffffffffffffffffffffffffffffffffffffffff168173ffffffffffffffffffffffffffffffffffffffff16146105f4576040517f6697b23200000000000000000000000000000000000000000000000000000000815260040160405180910390fd5b6105fe8282610a1d565b505050565b60005b828290508110156106b4578282828181106106245761062361141d565b5b9050602002810190610636919061145b565b600001357f3a8c98eb820de2bc0f92e6c44a3bc0245111e8d203e7aa5e8f2cb783b61ca1243385858581811061066f5761066e61141d565b5b9050602002810190610681919061145b565b80602001906106909190611483565b60405161069f93929190611522565b60405180910390a28080600101915050610606565b505050565b6000801b6106c6816108a6565b816001819055505050565b600080600084815260200190815260200160002060000160008373ffffffffffffffffffffffffffffffffffffffff1673ffffffffffffffffffffffffffffffffffffffff16815260200190815260200160002060009054906101000a900460ff16905092915050565b600154341015610780576040517f08c379a0000000000000000000000000000000000000000000000000000000008152600401610777906115a0565b60405180910390fd5b7f6c77c4e5e031dca0c4944909e0d4d343c9c5b16eda4ef1d4be0762693e026722338260000151836040015134468660200151876060015188608001518960a001516040516107d79998979695949392919061163d565b60405180910390a150565b6000801b81565b6000600154905090565b6107fc82610547565b610805816108a6565b61080f8383610a1d565b50505050565b60005b828290508110156108a1578282828181106108365761083561141d565b5b905060a00201600001357f8fefda2f6c146df62efa1de95f8ff0b9c29ae07b9846e61fbce6e618897397ff338585858181106108755761087461141d565b5b905060a0020160200160405161088c92919061180f565b60405180910390a28080600101915050610818565b505050565b6108b7816108b2610a15565b610b0f565b50565b60007f01ffc9a7000000000000000000000000000000000000000000000000000000007bffffffffffffffffffffffffffffffffffffffffffffffffffffffff1916827bffffffffffffffffffffffffffffffffffffffffffffffffffffffff1916149050919050565b600061093083836106d1565b610a0a57600160008085815260200190815260200160002060000160008473ffffffffffffffffffffffffffffffffffffffff1673ffffffffffffffffffffffffffffffffffffffff16815260200190815260200160002060006101000a81548160ff0219169083151502179055506109a7610a15565b73ffffffffffffffffffffffffffffffffffffffff168273ffffffffffffffffffffffffffffffffffffffff16847f2f8788117e7eff1d82e926ec794901d17c78024a50270940304540a733656f0d60405160405180910390a460019050610a0f565b600090505b92915050565b600033905090565b6000610a2983836106d1565b15610b0457600080600085815260200190815260200160002060000160008473ffffffffffffffffffffffffffffffffffffffff1673ffffffffffffffffffffffffffffffffffffffff16815260200190815260200160002060006101000a81548160ff021916908315150217905550610aa1610a15565b73ffffffffffffffffffffffffffffffffffffffff168273ffffffffffffffffffffffffffffffffffffffff16847ff6391f5c32d9c69d2a47ea670b442974b53935d1edc7fd64eb21e047a839171b60405160405180910390a460019050610b09565b600090505b92915050565b610b1982826106d1565b610b5c5780826040517fe2517d3f000000000000000000000000000000000000000000000000000000008152600401610b53929190611838565b60405180910390fd5b5050565b6000604051905090565b600080fd5b600080fd5b6000819050919050565b610b8781610b74565b8114610b9257600080fd5b50565b600081359050610ba481610b7e565b92915050565b600073ffffffffffffffffffffffffffffffffffffffff82169050919050565b6000610bd582610baa565b9050919050565b610be581610bca565b8114610bf057600080fd5b50565b600081359050610c0281610bdc565b92915050565b60008060408385031215610c1f57610c1e610b6a565b5b6000610c2d85828601610b95565b9250506020610c3e85828601610bf3565b9150509250929050565b60007fffffffff0000000000000000000000000000000000000000000000000000000082169050919050565b610c7d81610c48565b8114610c8857600080fd5b50565b600081359050610c9a81610c74565b92915050565b600060208284031215610cb657610cb5610b6a565b5b6000610cc484828501610c8b565b91505092915050565b60008115159050919050565b610ce281610ccd565b82525050565b6000602082019050610cfd6000830184610cd9565b92915050565b6000819050919050565b610d1681610d03565b8114610d2157600080fd5b50565b600081359050610d3381610d0d565b92915050565b600060208284031215610d4f57610d4e610b6a565b5b6000610d5d84828501610d24565b91505092915050565b610d6f81610d03565b82525050565b6000602082019050610d8a6000830184610d66565b92915050565b60008060408385031215610da757610da6610b6a565b5b6000610db585828601610d24565b9250506020610dc685828601610bf3565b9150509250929050565b600080fd5b600080fd5b600080fd5b60008083601f840112610df557610df4610dd0565b5b8235905067ffffffffffffffff811115610e1257610e11610dd5565b5b602083019150836020820283011115610e2e57610e2d610dda565b5b9250929050565b60008060208385031215610e4c57610e4b610b6a565b5b600083013567ffffffffffffffff811115610e6a57610e69610b6f565b5b610e7685828601610ddf565b92509250509250929050565b600060208284031215610e9857610e97610b6a565b5b6000610ea684828501610b95565b91505092915050565b600080fd5b6000601f19601f8301169050919050565b7f4e487b7100000000000000000000000000000000000000000000000000000000600052604160045260246000fd5b610efd82610eb4565b810181811067ffffffffffffffff82111715610f1c57610f1b610ec5565b5b80604052505050565b6000610f2f610b60565b9050610f3b8282610ef4565b919050565b600080fd5b600080fd5b600067ffffffffffffffff821115610f6557610f64610ec5565b5b610f6e82610eb4565b9050602081019050919050565b82818337600083830152505050565b6000610f9d610f9884610f4a565b610f25565b905082815260208101848484011115610fb957610fb8610f45565b5b610fc4848285610f7b565b509392505050565b600082601f830112610fe157610fe0610dd0565b5b8135610ff1848260208601610f8a565b91505092915050565b600063ffffffff82169050919050565b61101381610ffa565b811461101e57600080fd5b50565b6000813590506110308161100a565b92915050565b600060c0828403121561104c5761104b610eaf565b5b61105660c0610f25565b9050600061106684828501610d24565b600083015250602082013567ffffffffffffffff81111561108a57611089610f40565b5b61109684828501610fcc565b60208301525060406110aa84828501611021565b604083015250606082013567ffffffffffffffff8111156110ce576110cd610f40565b5b6110da84828501610fcc565b606083015250608082013567ffffffffffffffff8111156110fe576110fd610f40565b5b61110a84828501610fcc565b60808301525060a082013567ffffffffffffffff81111561112e5761112d610f40565b5b61113a84828501610fcc565b60a08301525092915050565b60006020828403121561115c5761115b610b6a565b5b600082013567ffffffffffffffff81111561117a57611179610b6f565b5b61118684828501611036565b91505092915050565b61119881610b74565b82525050565b60006020820190506111b3600083018461118f565b92915050565b60008083601f8401126111cf576111ce610dd0565b5b8235905067ffffffffffffffff8111156111ec576111eb610dd5565b5b6020830191508360a082028301111561120857611207610dda565b5b9250929050565b6000806020838503121561122657611225610b6a565b5b600083013567ffffffffffffffff81111561124457611243610b6f565b5b611250858286016111b9565b92509250509250929050565b600082825260208201905092915050565b7f496e76616c696420726563656976657220616464726573730000000000000000600082015250565b60006112a360188361125c565b91506112ae8261126d565b602082019050919050565b600060208201905081810360008301526112d281611296565b9050919050565b7f576974686472617720616d6f756e74206d75737420626520736d616c6c65722060008201527f7468616e20746f74616c2062616c616e636520696e20636f6e74726163740000602082015250565b6000611335603e8361125c565b9150611340826112d9565b604082019050919050565b6000602082019050818103600083015261136481611328565b9050919050565b600081905092915050565b50565b600061138660008361136b565b915061139182611376565b600082019050919050565b60006113a782611379565b9150819050919050565b7f5472616e73666572206661696c65640000000000000000000000000000000000600082015250565b60006113e7600f8361125c565b91506113f2826113b1565b602082019050919050565b60006020820190508181036000830152611416816113da565b9050919050565b7f4e487b7100000000000000000000000000000000000000000000000000000000600052603260045260246000fd5b600080fd5b600080fd5b600080fd5b6000823560016040038336030381126114775761147661144c565b5b80830191505092915050565b600080833560016020038436030381126114a05761149f61144c565b5b80840192508235915067ffffffffffffffff8211156114c2576114c1611451565b5b6020830192506001820236038313156114de576114dd611456565b5b509250929050565b6114ef81610bca565b82525050565b6000611501838561125c565b935061150e838584610f7b565b61151783610eb4565b840190509392505050565b600060408201905061153760008301866114e6565b818103602083015261154a8184866114f5565b9050949350505050565b7f496e73756666696369656e74206465706f736974000000000000000000000000600082015250565b600061158a60148361125c565b915061159582611554565b602082019050919050565b600060208201905081810360008301526115b98161157d565b9050919050565b6115c981610ffa565b82525050565b600081519050919050565b60005b838110156115f85780820151818401526020810190506115dd565b60008484015250505050565b600061160f826115cf565b611619818561125c565b93506116298185602086016115da565b61163281610eb4565b840191505092915050565b600061012082019050611653600083018c6114e6565b611660602083018b610d66565b61166d604083018a6115c0565b61167a606083018961118f565b611687608083018861118f565b81810360a08301526116998187611604565b905081810360c08301526116ad8186611604565b905081810360e08301526116c18185611604565b90508181036101008301526116d68184611604565b90509a9950505050505050505050565b600082905092915050565b60006117006020840184610b95565b905092915050565b61171181610b74565b82525050565b6040820161172860008301836116f1565b6117356000850182611708565b5061174360208301836116f1565b6117506020850182611708565b50505050565b600060ff82169050919050565b61176c81611756565b811461177757600080fd5b50565b60008135905061178981611763565b92915050565b600061179e602084018461177a565b905092915050565b6117af81611756565b82525050565b608082016117c660008301836116e6565b6117d36000850182611717565b506117e160408301836116f1565b6117ee6040850182611708565b506117fc606083018361178f565b61180960608501826117a6565b50505050565b600060a08201905061182460008301856114e6565b61183160208301846117b5565b9392505050565b600060408201905061184d60008301856114e6565b61185a6020830184610d66565b939250505056fea26469706673582212208a6c33a38b3e6c3b5133f5bf0b74203de647f0dffd315c8f71d1c15bb52ead6f64736f6c634300081b0033",
  "linkReferences": {},
  "deployedLinkReferences": {}
}