{
  "contracts/ChainSignatures.sol": {
    "ChainSignatures": {
      "abi": [
        {
          "inputs": [
            {
              "internalType": "address",
              "name": "_mpc_network",
              "type": "address"
            },
            {
              "internalType": "uint256",
              "name": "_signatureDeposit",
              "type": "uint256"
            }
          ],
          "stateMutability": "nonpayable",
          "type": "constructor"
        },
        {
          "inputs": [],
          "name": "AccessControlBadConfirmation",
          "type": "error"
        },
        {
          "inputs": [
            {
              "internalType": "address",
              "name": "account",
              "type": "address"
            },
            {
              "internalType": "bytes32",
              "name": "neededRole",
              "type": "bytes32"
            }
          ],
          "name": "AccessControlUnauthorizedAccount",
          "type": "error"
        },
        {
          "anonymous": false,
          "inputs": [
            {
              "indexed": true,
              "internalType": "bytes32",
              "name": "role",
              "type": "bytes32"
            },
            {
              "indexed": true,
              "internalType": "bytes32",
              "name": "previousAdminRole",
              "type": "bytes32"
            },
            {
              "indexed": true,
              "internalType": "bytes32",
              "name": "newAdminRole",
              "type": "bytes32"
            }
          ],
          "name": "RoleAdminChanged",
          "type": "event"
        },
        {
          "anonymous": false,
          "inputs": [
            {
              "indexed": true,
              "internalType": "bytes32",
              "name": "role",
              "type": "bytes32"
            },
            {
              "indexed": true,
              "internalType": "address",
              "name": "account",
              "type": "address"
            },
            {
              "indexed": true,
              "internalType": "address",
              "name": "sender",
              "type": "address"
            }
          ],
          "name": "RoleGranted",
          "type": "event"
        },
        {
          "anonymous": false,
          "inputs": [
            {
              "indexed": true,
              "internalType": "bytes32",
              "name": "role",
              "type": "bytes32"
            },
            {
              "indexed": true,
              "internalType": "address",
              "name": "account",
              "type": "address"
            },
            {
              "indexed": true,
              "internalType": "address",
              "name": "sender",
              "type": "address"
            }
          ],
          "name": "RoleRevoked",
          "type": "event"
        },
        {
          "anonymous": false,
          "inputs": [
            {
              "indexed": true,
              "internalType": "bytes32",
              "name": "requestId",
              "type": "bytes32"
            },
            {
              "indexed": false,
              "internalType": "address",
              "name": "responder",
              "type": "address"
            },
            {
              "indexed": false,
              "internalType": "string",
              "name": "error",
              "type": "string"
            }
          ],
          "name": "SignatureError",
          "type": "event"
        },
        {
          "anonymous": false,
          "inputs": [
            {
              "indexed": false,
              "internalType": "address",
              "name": "sender",
              "type": "address"
            },
            {
              "indexed": false,
              "internalType": "bytes32",
              "name": "payload",
              "type": "bytes32"
            },
            {
              "indexed": false,
              "internalType": "uint32",
              "name": "keyVersion",
              "type": "uint32"
            },
            {
              "indexed": false,
              "internalType": "uint256",
              "name": "deposit",
              "type": "uint256"
            },
            {
              "indexed": false,
              "internalType": "uint256",
              "name": "chainId",
              "type": "uint256"
            },
            {
              "indexed": false,
              "internalType": "string",
              "name": "path",
              "type": "string"
            },
            {
              "indexed": false,
              "internalType": "string",
              "name": "algo",
              "type": "string"
            },
            {
              "indexed": false,
              "internalType": "string",
              "name": "dest",
              "type": "string"
            },
            {
              "indexed": false,
              "internalType": "string",
              "name": "params",
              "type": "string"
            }
          ],
          "name": "SignatureRequested",
          "type": "event"
        },
        {
          "anonymous": false,
          "inputs": [
            {
              "indexed": true,
              "internalType": "bytes32",
              "name": "requestId",
              "type": "bytes32"
            },
            {
              "indexed": false,
              "internalType": "address",
              "name": "responder",
              "type": "address"
            },
            {
              "components": [
                {
                  "components": [
                    {
                      "internalType": "uint256",
                      "name": "x",
                      "type": "uint256"
                    },
                    {
                      "internalType": "uint256",
                      "name": "y",
                      "type": "uint256"
                    }
                  ],
                  "internalType": "struct ChainSignatures.AffinePoint",
                  "name": "bigR",
                  "type": "tuple"
                },
                {
                  "internalType": "uint256",
                  "name": "s",
                  "type": "uint256"
                },
                {
                  "internalType": "uint8",
                  "name": "recoveryId",
                  "type": "uint8"
                }
              ],
              "indexed": false,
              "internalType": "struct ChainSignatures.Signature",
              "name": "signature",
              "type": "tuple"
            }
          ],
          "name": "SignatureResponded",
          "type": "event"
        },
        {
          "anonymous": false,
          "inputs": [
            {
              "indexed": true,
              "internalType": "address",
              "name": "owner",
              "type": "address"
            },
            {
              "indexed": false,
              "internalType": "uint256",
              "name": "amount",
              "type": "uint256"
            }
          ],
          "name": "Withdraw",
          "type": "event"
        },
        {
          "inputs": [],
          "name": "DEFAULT_ADMIN_ROLE",
          "outputs": [
            {
              "internalType": "bytes32",
              "name": "",
              "type": "bytes32"
            }
          ],
          "stateMutability": "view",
          "type": "function"
        },
        {
          "inputs": [
            {
              "internalType": "bytes32",
              "name": "role",
              "type": "bytes32"
            }
          ],
          "name": "getRoleAdmin",
          "outputs": [
            {
              "internalType": "bytes32",
              "name": "",
              "type": "bytes32"
            }
          ],
          "stateMutability": "view",
          "type": "function"
        },
        {
          "inputs": [],
          "name": "getSignatureDeposit",
          "outputs": [
            {
              "internalType": "uint256",
              "name": "",
              "type": "uint256"
            }
          ],
          "stateMutability": "view",
          "type": "function"
        },
        {
          "inputs": [
            {
              "internalType": "bytes32",
              "name": "role",
              "type": "bytes32"
            },
            {
              "internalType": "address",
              "name": "account",
              "type": "address"
            }
          ],
          "name": "grantRole",
          "outputs": [],
          "stateMutability": "nonpayable",
          "type": "function"
        },
        {
          "inputs": [
            {
              "internalType": "bytes32",
              "name": "role",
              "type": "bytes32"
            },
            {
              "internalType": "address",
              "name": "account",
              "type": "address"
            }
          ],
          "name": "hasRole",
          "outputs": [
            {
              "internalType": "bool",
              "name": "",
              "type": "bool"
            }
          ],
          "stateMutability": "view",
          "type": "function"
        },
        {
          "inputs": [
            {
              "internalType": "bytes32",
              "name": "role",
              "type": "bytes32"
            },
            {
              "internalType": "address",
              "name": "callerConfirmation",
              "type": "address"
            }
          ],
          "name": "renounceRole",
          "outputs": [],
          "stateMutability": "nonpayable",
          "type": "function"
        },
        {
          "inputs": [
            {
              "components": [
                {
                  "internalType": "bytes32",
                  "name": "requestId",
                  "type": "bytes32"
                },
                {
                  "components": [
                    {
                      "components": [
                        {
                          "internalType": "uint256",
                          "name": "x",
                          "type": "uint256"
                        },
                        {
                          "internalType": "uint256",
                          "name": "y",
                          "type": "uint256"
                        }
                      ],
                      "internalType": "struct ChainSignatures.AffinePoint",
                      "name": "bigR",
                      "type": "tuple"
                    },
                    {
                      "internalType": "uint256",
                      "name": "s",
                      "type": "uint256"
                    },
                    {
                      "internalType": "uint8",
                      "name": "recoveryId",
                      "type": "uint8"
                    }
                  ],
                  "internalType": "struct ChainSignatures.Signature",
                  "name": "signature",
                  "type": "tuple"
                }
              ],
              "internalType": "struct ChainSignatures.Response[]",
              "name": "_responses",
              "type": "tuple[]"
            }
          ],
          "name": "respond",
          "outputs": [],
          "stateMutability": "nonpayable",
          "type": "function"
        },
        {
          "inputs": [
            {
              "components": [
                {
                  "internalType": "bytes32",
                  "name": "requestId",
                  "type": "bytes32"
                },
                {
                  "internalType": "string",
                  "name": "errorMessage",
                  "type": "string"
                }
              ],
              "internalType": "struct ChainSignatures.ErrorResponse[]",
              "name": "_errors",
              "type": "tuple[]"
            }
          ],
          "name": "respondError",
          "outputs": [],
          "stateMutability": "nonpayable",
          "type": "function"
        },
        {
          "inputs": [
            {
              "internalType": "bytes32",
              "name": "role",
              "type": "bytes32"
            },
            {
              "internalType": "address",
              "name": "account",
              "type": "address"
            }
          ],
          "name": "revokeRole",
          "outputs": [],
          "stateMutability": "nonpayable",
          "type": "function"
        },
        {
          "inputs": [
            {
              "internalType": "uint256",
              "name": "_amount",
              "type": "uint256"
            }
          ],
          "name": "setSignatureDeposit",
          "outputs": [],
          "stateMutability": "nonpayable",
          "type": "function"
        },
        {
          "inputs": [
            {
              "components": [
                {
                  "internalType": "bytes32",
                  "name": "payload",
                  "type": "bytes32"
                },
                {
                  "internalType": "string",
                  "name": "path",
                  "type": "string"
                },
                {
                  "internalType": "uint32",
                  "name": "keyVersion",
                  "type": "uint32"
                },
                {
                  "internalType": "string",
                  "name": "algo",
                  "type": "string"
                },
                {
                  "internalType": "string",
                  "name": "dest",
                  "type": "string"
                },
                {
                  "internalType": "string",
                  "name": "params",
                  "type": "string"
                }
              ],
              "internalType": "struct ChainSignatures.SignRequest",
              "name": "_request",
              "type": "tuple"
            }
          ],
          "name": "sign",
          "outputs": [],
          "stateMutability": "payable",
          "type": "function"
        },
        {
          "inputs": [
            {
              "internalType": "bytes4",
              "name": "interfaceId",
              "type": "bytes4"
            }
          ],
          "name": "supportsInterface",
          "outputs": [
            {
              "internalType": "bool",
              "name": "",
              "type": "bool"
            }
          ],
          "stateMutability": "view",
          "type": "function"
        },
        {
          "inputs": [
            {
              "internalType": "uint256",
              "name": "_amount",
              "type": "uint256"
            },
            {
              "internalType": "address",
              "name": "_receiver",
              "type": "address"
            }
          ],
          "name": "withdraw",
          "outputs": [],
          "stateMutability": "nonpayable",
          "type": "function"
        }
      ],
      "evm": {
        "bytecode": {
          "linkReferences": {},
          "object": "608060405234801561001057600080fd5b50604051611b42380380611b428339818101604052810190610032919061025c565b6100456000801b8361005460201b60201c565b5080600181905550505061029c565b6000610066838361015160201b60201c565b61014657600160008085815260200190815260200160002060000160008473ffffffffffffffffffffffffffffffffffffffff1673ffffffffffffffffffffffffffffffffffffffff16815260200190815260200160002060006101000a81548160ff0219169083151502179055506100e36101bb60201b60201c565b73ffffffffffffffffffffffffffffffffffffffff168273ffffffffffffffffffffffffffffffffffffffff16847f2f8788117e7eff1d82e926ec794901d17c78024a50270940304540a733656f0d60405160405180910390a46001905061014b565b600090505b92915050565b600080600084815260200190815260200160002060000160008373ffffffffffffffffffffffffffffffffffffffff1673ffffffffffffffffffffffffffffffffffffffff16815260200190815260200160002060009054906101000a900460ff16905092915050565b600033905090565b600080fd5b600073ffffffffffffffffffffffffffffffffffffffff82169050919050565b60006101f3826101c8565b9050919050565b610203816101e8565b811461020e57600080fd5b50565b600081519050610220816101fa565b92915050565b6000819050919050565b61023981610226565b811461024457600080fd5b50565b60008151905061025681610230565b92915050565b60008060408385031215610273576102726101c3565b5b600061028185828601610211565b925050602061029285828601610247565b9150509250929050565b611897806102ab6000396000f3fe6080604052600436106100c15760003560e01c80635f45af881161007f578063a217fddf11610059578063a217fddf14610266578063ae650b9514610291578063d547741f146102bc578063fb0dc126146102e5576100c1565b80635f45af88146101e457806391d148541461020d578063a03b5c3b1461024a576100c1565b8062f714ce146100c657806301ffc9a7146100ef578063248a9ca31461012c5780632f2ff15d1461016957806336568abe1461019257806343ec0d4c146101bb575b600080fd5b3480156100d257600080fd5b506100ed60048036038101906100e89190610c08565b61030e565b005b3480156100fb57600080fd5b5061011660048036038101906101119190610ca0565b6104cd565b6040516101239190610ce8565b60405180910390f35b34801561013857600080fd5b50610153600480360381019061014e9190610d39565b610547565b6040516101609190610d75565b60405180910390f35b34801561017557600080fd5b50610190600480360381019061018b9190610d90565b610566565b005b34801561019e57600080fd5b506101b960048036038101906101b49190610d90565b610588565b005b3480156101c757600080fd5b506101e260048036038101906101dd9190610e35565b610603565b005b3480156101f057600080fd5b5061020b60048036038101906102069190610e82565b6106b9565b005b34801561021957600080fd5b50610234600480360381019061022f9190610d90565b6106d1565b6040516102419190610ce8565b60405180910390f35b610264600480360381019061025f9190611146565b61073b565b005b34801561027257600080fd5b5061027b6107e2565b6040516102889190610d75565b60405180910390f35b34801561029d57600080fd5b506102a66107e9565b6040516102b3919061119e565b60405180910390f35b3480156102c857600080fd5b506102e360048036038101906102de9190610d90565b6107f3565b005b3480156102f157600080fd5b5061030c6004803603810190610307919061120f565b610815565b005b6000801b61031b816108a6565b600073ffffffffffffffffffffffffffffffffffffffff168273ffffffffffffffffffffffffffffffffffffffff160361038a576040517f08c379a0000000000000000000000000000000000000000000000000000000008152600401610381906112b9565b60405180910390fd5b478311156103cd576040517f08c379a00000000000000000000000000000000000000000000000000000000081526004016103c49061134b565b60405180910390fd5b60008273ffffffffffffffffffffffffffffffffffffffff16846040516103f39061139c565b60006040518083038185875af1925050503d8060008114610430576040519150601f19603f3d011682016040523d82523d6000602084013e610435565b606091505b5050905080610479576040517f08c379a0000000000000000000000000000000000000000000000000000000008152600401610470906113fd565b60405180910390fd5b8273ffffffffffffffffffffffffffffffffffffffff167f884edad9ce6fa2440d8a54cc123490eb96d2768479d49ff9c7366125a9424364856040516104bf919061119e565b60405180910390a250505050565b60007f7965db0b000000000000000000000000000000000000000000000000000000007bffffffffffffffffffffffffffffffffffffffffffffffffffffffff1916827bffffffffffffffffffffffffffffffffffffffffffffffffffffffff19161480610540575061053f826108ba565b5b9050919050565b6000806000838152602001908152602001600020600101549050919050565b61056f82610547565b610578816108a6565b6105828383610924565b50505050565b610590610a15565b73ffffffffffffffffffffffffffffffffffffffff168173ffffffffffffffffffffffffffffffffffffffff16146105f4576040517f6697b23200000000000000000000000000000000000000000000000000000000815260040160405180910390fd5b6105fe8282610a1d565b505050565b60005b828290508110156106b4578282828181106106245761062361141d565b5b9050602002810190610636919061145b565b600001357f3a8c98eb820de2bc0f92e6c44a3bc0245111e8d203e7aa5e8f2cb783b61ca1243385858581811061066f5761066e61141d565b5b9050602002810190610681919061145b565b80602001906106909190611483565b60405161069f93929190611522565b60405180910390a28080600101915050610606565b505050565b6000801b6106c6816108a6565b816001819055505050565b600080600084815260200190815260200160002060000160008373ffffffffffffffffffffffffffffffffffffffff1673ffffffffffffffffffffffffffffffffffffffff16815260200190815260200160002060009054906101000a900460ff16905092915050565b600154341015610780576040517f08c379a0000000000000000000000000000000000000000000000000000000008152600401610777906115a0565b60405180910390fd5b7f6c77c4e5e031dca0c4944909e0d4d343c9c5b16eda4ef1d4be0762693e026722338260000151836040015134468660200151876060015188608001518960a001516040516107d79998979695949392919061163d565b60405180910390a150565b6000801b81565b6000600154905090565b6107fc82610547565b610805816108a6565b61080f8383610a1d565b50505050565b60005b828290508110156108a1578282828181106108365761083561141d565b5b905060a00201600001357f8fefda2f6c146df62efa1de95f8ff0b9c29ae07b9846e61fbce6e618897397ff338585858181106108755761087461141d565b5b905060a0020160200160405161088c92919061180f565b60405180910390a28080600101915050610818565b505050565b6108b7816108b2610a15565b610b0f565b50565b60007f01ffc9a7000000000000000000000000000000000000000000000000000000007bffffffffffffffffffffffffffffffffffffffffffffffffffffffff1916827bffffffffffffffffffffffffffffffffffffffffffffffffffffffff1916149050919050565b600061093083836106d1565b610a0a57600160008085815260200190815260200160002060000160008473ffffffffffffffffffffffffffffffffffffffff1673ffffffffffffffffffffffffffffffffffffffff16815260200190815260200160002060006101000a81548160ff0219169083151502179055506109a7610a15565b73ffffffffffffffffffffffffffffffffffffffff168273ffffffffffffffffffffffffffffffffffffffff16847f2f8788117e7eff1d82e926ec794901d17c78024a50270940304540a733656f0d60405160405180910390a460019050610a0f565b600090505b92915050565b600033905090565b6000610a2983836106d1565b15610b0457600080600085815260200190815260200160002060000160008473ffffffffffffffffffffffffffffffffffffffff1673ffffffffffffffffffffffffffffffffffffffff16815260200190815260200160002060006101000a81548160ff021916908315150217905550610aa1610a15565b73ffffffffffffffffffffffffffffffffffffffff168273ffffffffffffffffffffffffffffffffffffffff16847ff6391f5c32d9c69d2a47ea670b442974b53935d1edc7fd64eb21e047a839171b60405160405180910390a460019050610b09565b600090505b92915050565b610b1982826106d1565b610b5c5780826040517fe2517d3f000000000000000000000000000000000000000000000000000000008152600401610b53929190611838565b60405180910390fd5b5050565b6000604051905090565b600080fd5b600080fd5b6000819050919050565b610b8781610b74565b8114610b9257600080fd5b50565b600081359050610ba481610b7e565b92915050565b600073ffffffffffffffffffffffffffffffffffffffff82169050919050565b6000610bd582610baa565b9050919050565b610be581610bca565b8114610bf057600080fd5b50565b600081359050610c0281610bdc565b92915050565b60008060408385031215610c1f57610c1e610b6a565b5b6000610c2d85828601610b95565b9250506020610c3e85828601610bf3565b9150509250929050565b60007fffffffff0000000000000000000000000000000000000000000000000000000082169050919050565b610c7d81610c48565b8114610c8857600080fd5b50565b600081359050610c9a81610c74565b92915050565b600060208284031215610cb657610cb5610b6a565b5b6000610cc484828501610c8b565b91505092915050565b60008115159050919050565b610ce281610ccd565b82525050565b6000602082019050610cfd6000830184610cd9565b92915050565b6000819050919050565b610d1681610d03565b8114610d2157600080fd5b50565b600081359050610d3381610d0d565b92915050565b600060208284031215610d4f57610d4e610b6a565b5b6000610d5d84828501610d24565b91505092915050565b610d6f81610d03565b82525050565b6000602082019050610d8a6000830184610d66565b92915050565b60008060408385031215610da757610da6610b6a565b5b6000610db585828601610d24565b9250506020610dc685828601610bf3565b9150509250929050565b600080fd5b600080fd5b600080fd5b60008083601f840112610df557610df4610dd0565b5b8235905067ffffffffffffffff811115610e1257610e11610dd5565b5b602083019150836020820283011115610e2e57610e2d610dda565b5b9250929050565b60008060208385031215610e4c57610e4b610b6a565b5b600083013567ffffffffffffffff811115610e6a57610e69610b6f565b5b610e7685828601610ddf565b92509250509250929050565b600060208284031215610e9857610e97610b6a565b5b6000610ea684828501610b95565b91505092915050565b600080fd5b6000601f19601f8301169050919050565b7f4e487b7100000000000000000000000000000000000000000000000000000000600052604160045260246000fd5b610efd82610eb4565b810181811067ffffffffffffffff82111715610f1c57610f1b610ec5565b5b80604052505050565b6000610f2f610b60565b9050610f3b8282610ef4565b919050565b600080fd5b600080fd5b600067ffffffffffffffff821115610f6557610f64610ec5565b5b610f6e82610eb4565b9050602081019050919050565b82818337600083830152505050565b6000610f9d610f9884610f4a565b610f25565b905082815260208101848484011115610fb957610fb8610f45565b5b610fc4848285610f7b565b509392505050565b600082601f830112610fe157610fe0610dd0565b5b8135610ff1848260208601610f8a565b91505092915050565b600063ffffffff82169050919050565b61101381610ffa565b811461101e57600080fd5b50565b6000813590506110308161100a565b92915050565b600060c0828403121561104c5761104b610eaf565b5b61105660c0610f25565b9050600061106684828501610d24565b600083015250602082013567ffffffffffffffff81111561108a57611089610f40565b5b61109684828501610fcc565b60208301525060406110aa84828501611021565b604083015250606082013567ffffffffffffffff8111156110ce576110cd610f40565b5b6110da84828501610fcc565b606083015250608082013567ffffffffffffffff8111156110fe576110fd610f40565b5b61110a84828501610fcc565b60808301525060a082013567ffffffffffffffff81111561112e5761112d610f40565b5b61113a84828501610fcc565b60a08301525092915050565b60006020828403121561115c5761115b610b6a565b5b600082013567ffffffffffffffff81111561117a57611179610b6f565b5b61118684828501611036565b91505092915050565b61119881610b74565b82525050565b60006020820190506111b3600083018461118f565b92915050565b60008083601f8401126111cf576111ce610dd0565b5b8235905067ffffffffffffffff8111156111ec576111eb610dd5565b5b6020830191508360a082028301111561120857611207610dda565b5b9250929050565b6000806020838503121561122657611225610b6a565b5b600083013567ffffffffffffffff81111561124457611243610b6f565b5b611250858286016111b9565b92509250509250929050565b600082825260208201905092915050565b7f496e76616c696420726563656976657220616464726573730000000000000000600082015250565b60006112a360188361125c565b91506112ae8261126d565b602082019050919050565b600060208201905081810360008301526112d281611296565b9050919050565b7f576974686472617720616d6f756e74206d75737420626520736d616c6c65722060008201527f7468616e20746f74616c2062616c616e636520696e20636f6e74726163740000602082015250565b6000611335603e8361125c565b9150611340826112d9565b604082019050919050565b6000602082019050818103600083015261136481611328565b9050919050565b600081905092915050565b50565b600061138660008361136b565b915061139182611376565b600082019050919050565b60006113a782611379565b9150819050919050565b7f5472616e73666572206661696c65640000000000000000000000000000000000600082015250565b60006113e7600f8361125c565b91506113f2826113b1565b602082019050919050565b60006020820190508181036000830152611416816113da565b9050919050565b7f4e487b7100000000000000000000000000000000000000000000000000000000600052603260045260246000fd5b600080fd5b600080fd5b600080fd5b6000823560016040038336030381126114775761147661144c565b5b80830191505092915050565b600080833560016020038436030381126114a05761149f61144c565b5b80840192508235915067ffffffffffffffff8211156114c2576114c1611451565b5b6020830192506001820236038313156114de576114dd611456565b5b509250929050565b6114ef81610bca565b82525050565b6000611501838561125c565b935061150e838584610f7b565b61151783610eb4565b840190509392505050565b600060408201905061153760008301866114e6565b818103602083015261154a8184866114f5565b9050949350505050565b7f496e73756666696369656e74206465706f736974000000000000000000000000600082015250565b600061158a60148361125c565b915061159582611554565b602082019050919050565b600060208201905081810360008301526115b98161157d565b9050919050565b6115c981610ffa565b82525050565b600081519050919050565b60005b838110156115f85780820151818401526020810190506115dd565b60008484015250505050565b600061160f826115cf565b611619818561125c565b93506116298185602086016115da565b61163281610eb4565b840191505092915050565b600061012082019050611653600083018c6114e6565b611660602083018b610d66565b61166d604083018a6115c0565b61167a606083018961118f565b611687608083018861118f565b81810360a08301526116998187611604565b905081810360c08301526116ad8186611604565b905081810360e08301526116c18185611604565b90508181036101008301526116d68184611604565b90509a9950505050505050505050565b600082905092915050565b60006117006020840184610b95565b905092915050565b61171181610b74565b82525050565b6040820161172860008301836116f1565b6117356000850182611708565b5061174360208301836116f1565b6117506020850182611708565b50505050565b600060ff82169050919050565b61176c81611756565b811461177757600080fd5b50565b60008135905061178981611763565b92915050565b600061179e602084018461177a565b905092915050565b6117af81611756565b82525050565b608082016117c660008301836116e6565b6117d36000850182611717565b506117e160408301836116f1565b6117ee6040850182611708565b506117fc606083018361178f565b61180960608501826117a6565b50505050565b600060a08201905061182460008301856114e6565b61183160208301846117b5565b9392505050565b600060408201905061184d60008301856114e6565b61185a6020830184610d66565b939250505056fea26469706673582212202eea9aaacf9dd7810b1f570cb63d664bd79569b59fd396dcd9da436007fb4cf364736f6c634300081b0033",
          "opcodes": "PUSH1 0x80 PUSH1 0x40 MSTORE CALLVALUE DUP1 ISZERO PUSH2 0x10 JUMPI PUSH1 0x0 DUP1 REVERT JUMPDEST POP PUSH1 0x40 MLOAD PUSH2 0x1B42 CODESIZE SUB DUP1 PUSH2 0x1B42 DUP4 CODECOPY DUP2 DUP2 ADD PUSH1 0x40 MSTORE DUP2 ADD SWAP1 PUSH2 0x32 SWAP2 SWAP1 PUSH2 0x25C JUMP JUMPDEST PUSH2 0x45 PUSH1 0x0 DUP1 SHL DUP4 PUSH2 0x54 PUSH1 0x20 SHL PUSH1 0x20 SHR JUMP JUMPDEST POP DUP1 PUSH1 0x1 DUP2 SWAP1 SSTORE POP POP POP PUSH2 0x29C JUMP JUMPDEST PUSH1 0x0 PUSH2 0x66 DUP4 DUP4 PUSH2 0x151 PUSH1 0x20 SHL PUSH1 0x20 SHR JUMP JUMPDEST PUSH2 0x146 JUMPI PUSH1 0x1 PUSH1 0x0 DUP1 DUP6 DUP2 MSTORE PUSH1 0x20 ADD SWAP1 DUP2 MSTORE PUSH1 0x20 ADD PUSH1 0x0 KECCAK256 PUSH1 0x0 ADD PUSH1 0x0 DUP5 PUSH20 0xFFFFFFFFFFFFFFFFFFFFFFFFFFFFFFFFFFFFFFFF AND PUSH20 0xFFFFFFFFFFFFFFFFFFFFFFFFFFFFFFFFFFFFFFFF AND DUP2 MSTORE PUSH1 0x20 ADD SWAP1 DUP2 MSTORE PUSH1 0x20 ADD PUSH1 0x0 KECCAK256 PUSH1 0x0 PUSH2 0x100 EXP DUP2 SLOAD DUP2 PUSH1 0xFF MUL NOT AND SWAP1 DUP4 ISZERO ISZERO MUL OR SWAP1 SSTORE POP PUSH2 0xE3 PUSH2 0x1BB PUSH1 0x20 SHL PUSH1 0x20 SHR JUMP JUMPDEST PUSH20 0xFFFFFFFFFFFFFFFFFFFFFFFFFFFFFFFFFFFFFFFF AND DUP3 PUSH20 0xFFFFFFFFFFFFFFFFFFFFFFFFFFFFFFFFFFFFFFFF AND DUP5 PUSH32 0x2F8788117E7EFF1D82E926EC794901D17C78024A50270940304540A733656F0D PUSH1 0x40 MLOAD PUSH1 0x40 MLOAD DUP1 SWAP2 SUB SWAP1 LOG4 PUSH1 0x1 SWAP1 POP PUSH2 0x14B JUMP JUMPDEST PUSH1 0x0 SWAP1 POP JUMPDEST SWAP3 SWAP2 POP POP JUMP JUMPDEST PUSH1 0x0 DUP1 PUSH1 0x0 DUP5 DUP2 MSTORE PUSH1 0x20 ADD SWAP1 DUP2 MSTORE PUSH1 0x20 ADD PUSH1 0x0 KECCAK256 PUSH1 0x0 ADD PUSH1 0x0 DUP4 PUSH20 0xFFFFFFFFFFFFFFFFFFFFFFFFFFFFFFFFFFFFFFFF AND PUSH20 0xFFFFFFFFFFFFFFFFFFFFFFFFFFFFFFFFFFFFFFFF AND DUP2 MSTORE PUSH1 0x20 ADD SWAP1 DUP2 MSTORE PUSH1 0x20 ADD PUSH1 0x0 KECCAK256 PUSH1 0x0 SWAP1 SLOAD SWAP1 PUSH2 0x100 EXP SWAP1 DIV PUSH1 0xFF AND SWAP1 POP SWAP3 SWAP2 POP POP JUMP JUMPDEST PUSH1 0x0 CALLER SWAP1 POP SWAP1 JUMP JUMPDEST PUSH1 0x0 DUP1 REVERT JUMPDEST PUSH1 0x0 PUSH20 0xFFFFFFFFFFFFFFFFFFFFFFFFFFFFFFFFFFFFFFFF DUP3 AND SWAP1 POP SWAP2 SWAP1 POP JUMP JUMPDEST PUSH1 0x0 PUSH2 0x1F3 DUP3 PUSH2 0x1C8 JUMP JUMPDEST SWAP1 POP SWAP2 SWAP1 POP JUMP JUMPDEST PUSH2 0x203 DUP2 PUSH2 0x1E8 JUMP JUMPDEST DUP2 EQ PUSH2 0x20E JUMPI PUSH1 0x0 DUP1 REVERT JUMPDEST POP JUMP JUMPDEST PUSH1 0x0 DUP2 MLOAD SWAP1 POP PUSH2 0x220 DUP2 PUSH2 0x1FA JUMP JUMPDEST SWAP3 SWAP2 POP POP JUMP JUMPDEST PUSH1 0x0 DUP2 SWAP1 POP SWAP2 SWAP1 POP JUMP JUMPDEST PUSH2 0x239 DUP2 PUSH2 0x226 JUMP JUMPDEST DUP2 EQ PUSH2 0x244 JUMPI PUSH1 0x0 DUP1 REVERT JUMPDEST POP JUMP JUMPDEST PUSH1 0x0 DUP2 MLOAD SWAP1 POP PUSH2 0x256 DUP2 PUSH2 0x230 JUMP JUMPDEST SWAP3 SWAP2 POP POP JUMP JUMPDEST PUSH1 0x0 DUP1 PUSH1 0x40 DUP4 DUP6 SUB SLT ISZERO PUSH2 0x273 JUMPI PUSH2 0x272 PUSH2 0x1C3 JUMP JUMPDEST JUMPDEST PUSH1 0x0 PUSH2 0x281 DUP6 DUP3 DUP7 ADD PUSH2 0x211 JUMP JUMPDEST SWAP3 POP POP PUSH1 0x20 PUSH2 0x292 DUP6 DUP3 DUP7 ADD PUSH2 0x247 JUMP JUMPDEST SWAP2 POP POP SWAP3 POP SWAP3 SWAP1 POP JUMP JUMPDEST PUSH2 0x1897 DUP1 PUSH2 0x2AB PUSH1 0x0 CODECOPY PUSH1 0x0 RETURN INVALID PUSH1 0x80 PUSH1 0x40 MSTORE PUSH1 0x4 CALLDATASIZE LT PUSH2 0xC1 JUMPI PUSH1 0x0 CALLDATALOAD PUSH1 0xE0 SHR DUP1 PUSH4 0x5F45AF88 GT PUSH2 0x7F JUMPI DUP1 PUSH4 0xA217FDDF GT PUSH2 0x59 JUMPI DUP1 PUSH4 0xA217FDDF EQ PUSH2 0x266 JUMPI DUP1 PUSH4 0xAE650B95 EQ PUSH2 0x291 JUMPI DUP1 PUSH4 0xD547741F EQ PUSH2 0x2BC JUMPI DUP1 PUSH4 0xFB0DC126 EQ PUSH2 0x2E5 JUMPI PUSH2 0xC1 JUMP JUMPDEST DUP1 PUSH4 0x5F45AF88 EQ PUSH2 0x1E4 JUMPI DUP1 PUSH4 0x91D14854 EQ PUSH2 0x20D JUMPI DUP1 PUSH4 0xA03B5C3B EQ PUSH2 0x24A JUMPI PUSH2 0xC1 JUMP JUMPDEST DUP1 PUSH3 0xF714CE EQ PUSH2 0xC6 JUMPI DUP1 PUSH4 0x1FFC9A7 EQ PUSH2 0xEF JUMPI DUP1 PUSH4 0x248A9CA3 EQ PUSH2 0x12C JUMPI DUP1 PUSH4 0x2F2FF15D EQ PUSH2 0x169 JUMPI DUP1 PUSH4 0x36568ABE EQ PUSH2 0x192 JUMPI DUP1 PUSH4 0x43EC0D4C EQ PUSH2 0x1BB JUMPI JUMPDEST PUSH1 0x0 DUP1 REVERT JUMPDEST CALLVALUE DUP1 ISZERO PUSH2 0xD2 JUMPI PUSH1 0x0 DUP1 REVERT JUMPDEST POP PUSH2 0xED PUSH1 0x4 DUP1 CALLDATASIZE SUB DUP2 ADD SWAP1 PUSH2 0xE8 SWAP2 SWAP1 PUSH2 0xC08 JUMP JUMPDEST PUSH2 0x30E JUMP JUMPDEST STOP JUMPDEST CALLVALUE DUP1 ISZERO PUSH2 0xFB JUMPI PUSH1 0x0 DUP1 REVERT JUMPDEST POP PUSH2 0x116 PUSH1 0x4 DUP1 CALLDATASIZE SUB DUP2 ADD SWAP1 PUSH2 0x111 SWAP2 SWAP1 PUSH2 0xCA0 JUMP JUMPDEST PUSH2 0x4CD JUMP JUMPDEST PUSH1 0x40 MLOAD PUSH2 0x123 SWAP2 SWAP1 PUSH2 0xCE8 JUMP JUMPDEST PUSH1 0x40 MLOAD DUP1 SWAP2 SUB SWAP1 RETURN JUMPDEST CALLVALUE DUP1 ISZERO PUSH2 0x138 JUMPI PUSH1 0x0 DUP1 REVERT JUMPDEST POP PUSH2 0x153 PUSH1 0x4 DUP1 CALLDATASIZE SUB DUP2 ADD SWAP1 PUSH2 0x14E SWAP2 SWAP1 PUSH2 0xD39 JUMP JUMPDEST PUSH2 0x547 JUMP JUMPDEST PUSH1 0x40 MLOAD PUSH2 0x160 SWAP2 SWAP1 PUSH2 0xD75 JUMP JUMPDEST PUSH1 0x40 MLOAD DUP1 SWAP2 SUB SWAP1 RETURN JUMPDEST CALLVALUE DUP1 ISZERO PUSH2 0x175 JUMPI PUSH1 0x0 DUP1 REVERT JUMPDEST POP PUSH2 0x190 PUSH1 0x4 DUP1 CALLDATASIZE SUB DUP2 ADD SWAP1 PUSH2 0x18B SWAP2 SWAP1 PUSH2 0xD90 JUMP JUMPDEST PUSH2 0x566 JUMP JUMPDEST STOP JUMPDEST CALLVALUE DUP1 ISZERO PUSH2 0x19E JUMPI PUSH1 0x0 DUP1 REVERT JUMPDEST POP PUSH2 0x1B9 PUSH1 0x4 DUP1 CALLDATASIZE SUB DUP2 ADD SWAP1 PUSH2 0x1B4 SWAP2 SWAP1 PUSH2 0xD90 JUMP JUMPDEST PUSH2 0x588 JUMP JUMPDEST STOP JUMPDEST CALLVALUE DUP1 ISZERO PUSH2 0x1C7 JUMPI PUSH1 0x0 DUP1 REVERT JUMPDEST POP PUSH2 0x1E2 PUSH1 0x4 DUP1 CALLDATASIZE SUB DUP2 ADD SWAP1 PUSH2 0x1DD SWAP2 SWAP1 PUSH2 0xE35 JUMP JUMPDEST PUSH2 0x603 JUMP JUMPDEST STOP JUMPDEST CALLVALUE DUP1 ISZERO PUSH2 0x1F0 JUMPI PUSH1 0x0 DUP1 REVERT JUMPDEST POP PUSH2 0x20B PUSH1 0x4 DUP1 CALLDATASIZE SUB DUP2 ADD SWAP1 PUSH2 0x206 SWAP2 SWAP1 PUSH2 0xE82 JUMP JUMPDEST PUSH2 0x6B9 JUMP JUMPDEST STOP JUMPDEST CALLVALUE DUP1 ISZERO PUSH2 0x219 JUMPI PUSH1 0x0 DUP1 REVERT JUMPDEST POP PUSH2 0x234 PUSH1 0x4 DUP1 CALLDATASIZE SUB DUP2 ADD SWAP1 PUSH2 0x22F SWAP2 SWAP1 PUSH2 0xD90 JUMP JUMPDEST PUSH2 0x6D1 JUMP JUMPDEST PUSH1 0x40 MLOAD PUSH2 0x241 SWAP2 SWAP1 PUSH2 0xCE8 JUMP JUMPDEST PUSH1 0x40 MLOAD DUP1 SWAP2 SUB SWAP1 RETURN JUMPDEST PUSH2 0x264 PUSH1 0x4 DUP1 CALLDATASIZE SUB DUP2 ADD SWAP1 PUSH2 0x25F SWAP2 SWAP1 PUSH2 0x1146 JUMP JUMPDEST PUSH2 0x73B JUMP JUMPDEST STOP JUMPDEST CALLVALUE DUP1 ISZERO PUSH2 0x272 JUMPI PUSH1 0x0 DUP1 REVERT JUMPDEST POP PUSH2 0x27B PUSH2 0x7E2 JUMP JUMPDEST PUSH1 0x40 MLOAD PUSH2 0x288 SWAP2 SWAP1 PUSH2 0xD75 JUMP JUMPDEST PUSH1 0x40 MLOAD DUP1 SWAP2 SUB SWAP1 RETURN JUMPDEST CALLVALUE DUP1 ISZERO PUSH2 0x29D JUMPI PUSH1 0x0 DUP1 REVERT JUMPDEST POP PUSH2 0x2A6 PUSH2 0x7E9 JUMP JUMPDEST PUSH1 0x40 MLOAD PUSH2 0x2B3 SWAP2 SWAP1 PUSH2 0x119E JUMP JUMPDEST PUSH1 0x40 MLOAD DUP1 SWAP2 SUB SWAP1 RETURN JUMPDEST CALLVALUE DUP1 ISZERO PUSH2 0x2C8 JUMPI PUSH1 0x0 DUP1 REVERT JUMPDEST POP PUSH2 0x2E3 PUSH1 0x4 DUP1 CALLDATASIZE SUB DUP2 ADD SWAP1 PUSH2 0x2DE SWAP2 SWAP1 PUSH2 0xD90 JUMP JUMPDEST PUSH2 0x7F3 JUMP JUMPDEST STOP JUMPDEST CALLVALUE DUP1 ISZERO PUSH2 0x2F1 JUMPI PUSH1 0x0 DUP1 REVERT JUMPDEST POP PUSH2 0x30C PUSH1 0x4 DUP1 CALLDATASIZE SUB DUP2 ADD SWAP1 PUSH2 0x307 SWAP2 SWAP1 PUSH2 0x120F JUMP JUMPDEST PUSH2 0x815 JUMP JUMPDEST STOP JUMPDEST PUSH1 0x0 DUP1 SHL PUSH2 0x31B DUP2 PUSH2 0x8A6 JUMP JUMPDEST PUSH1 0x0 PUSH20 0xFFFFFFFFFFFFFFFFFFFFFFFFFFFFFFFFFFFFFFFF AND DUP3 PUSH20 0xFFFFFFFFFFFFFFFFFFFFFFFFFFFFFFFFFFFFFFFF AND SUB PUSH2 0x38A JUMPI PUSH1 0x40 MLOAD PUSH32 0x8C379A000000000000000000000000000000000000000000000000000000000 DUP2 MSTORE PUSH1 0x4 ADD PUSH2 0x381 SWAP1 PUSH2 0x12B9 JUMP JUMPDEST PUSH1 0x40 MLOAD DUP1 SWAP2 SUB SWAP1 REVERT JUMPDEST SELFBALANCE DUP4 GT ISZERO PUSH2 0x3CD JUMPI PUSH1 0x40 MLOAD PUSH32 0x8C379A000000000000000000000000000000000000000000000000000000000 DUP2 MSTORE PUSH1 0x4 ADD PUSH2 0x3C4 SWAP1 PUSH2 0x134B JUMP JUMPDEST PUSH1 0x40 MLOAD DUP1 SWAP2 SUB SWAP1 REVERT JUMPDEST PUSH1 0x0 DUP3 PUSH20 0xFFFFFFFFFFFFFFFFFFFFFFFFFFFFFFFFFFFFFFFF AND DUP5 PUSH1 0x40 MLOAD PUSH2 0x3F3 SWAP1 PUSH2 0x139C JUMP JUMPDEST PUSH1 0x0 PUSH1 0x40 MLOAD DUP1 DUP4 SUB DUP2 DUP6 DUP8 GAS CALL SWAP3 POP POP POP RETURNDATASIZE DUP1 PUSH1 0x0 DUP2 EQ PUSH2 0x430 JUMPI PUSH1 0x40 MLOAD SWAP2 POP PUSH1 0x1F NOT PUSH1 0x3F RETURNDATASIZE ADD AND DUP3 ADD PUSH1 0x40 MSTORE RETURNDATASIZE DUP3 MSTORE RETURNDATASIZE PUSH1 0x0 PUSH1 0x20 DUP5 ADD RETURNDATACOPY PUSH2 0x435 JUMP JUMPDEST PUSH1 0x60 SWAP2 POP JUMPDEST POP POP SWAP1 POP DUP1 PUSH2 0x479 JUMPI PUSH1 0x40 MLOAD PUSH32 0x8C379A000000000000000000000000000000000000000000000000000000000 DUP2 MSTORE PUSH1 0x4 ADD PUSH2 0x470 SWAP1 PUSH2 0x13FD JUMP JUMPDEST PUSH1 0x40 MLOAD DUP1 SWAP2 SUB SWAP1 REVERT JUMPDEST DUP3 PUSH20 0xFFFFFFFFFFFFFFFFFFFFFFFFFFFFFFFFFFFFFFFF AND PUSH32 0x884EDAD9CE6FA2440D8A54CC123490EB96D2768479D49FF9C7366125A9424364 DUP6 PUSH1 0x40 MLOAD PUSH2 0x4BF SWAP2 SWAP1 PUSH2 0x119E JUMP JUMPDEST PUSH1 0x40 MLOAD DUP1 SWAP2 SUB SWAP1 LOG2 POP POP POP POP JUMP JUMPDEST PUSH1 0x0 PUSH32 0x7965DB0B00000000000000000000000000000000000000000000000000000000 PUSH28 0xFFFFFFFFFFFFFFFFFFFFFFFFFFFFFFFFFFFFFFFFFFFFFFFFFFFFFFFF NOT AND DUP3 PUSH28 0xFFFFFFFFFFFFFFFFFFFFFFFFFFFFFFFFFFFFFFFFFFFFFFFFFFFFFFFF NOT AND EQ DUP1 PUSH2 0x540 JUMPI POP PUSH2 0x53F DUP3 PUSH2 0x8BA JUMP JUMPDEST JUMPDEST SWAP1 POP SWAP2 SWAP1 POP JUMP JUMPDEST PUSH1 0x0 DUP1 PUSH1 0x0 DUP4 DUP2 MSTORE PUSH1 0x20 ADD SWAP1 DUP2 MSTORE PUSH1 0x20 ADD PUSH1 0x0 KECCAK256 PUSH1 0x1 ADD SLOAD SWAP1 POP SWAP2 SWAP1 POP JUMP JUMPDEST PUSH2 0x56F DUP3 PUSH2 0x547 JUMP JUMPDEST PUSH2 0x578 DUP2 PUSH2 0x8A6 JUMP JUMPDEST PUSH2 0x582 DUP4 DUP4 PUSH2 0x924 JUMP JUMPDEST POP POP POP POP JUMP JUMPDEST PUSH2 0x590 PUSH2 0xA15 JUMP JUMPDEST PUSH20 0xFFFFFFFFFFFFFFFFFFFFFFFFFFFFFFFFFFFFFFFF AND DUP2 PUSH20 0xFFFFFFFFFFFFFFFFFFFFFFFFFFFFFFFFFFFFFFFF AND EQ PUSH2 0x5F4 JUMPI PUSH1 0x40 MLOAD PUSH32 0x6697B23200000000000000000000000000000000000000000000000000000000 DUP2 MSTORE PUSH1 0x4 ADD PUSH1 0x40 MLOAD DUP1 SWAP2 SUB SWAP1 REVERT JUMPDEST PUSH2 0x5FE DUP3 DUP3 PUSH2 0xA1D JUMP JUMPDEST POP POP POP JUMP JUMPDEST PUSH1 0x0 JUMPDEST DUP3 DUP3 SWAP1 POP DUP2 LT ISZERO PUSH2 0x6B4 JUMPI DUP3 DUP3 DUP3 DUP2 DUP2 LT PUSH2 0x624 JUMPI PUSH2 0x623 PUSH2 0x141D JUMP JUMPDEST JUMPDEST SWAP1 POP PUSH1 0x20 MUL DUP2 ADD SWAP1 PUSH2 0x636 SWAP2 SWAP1 PUSH2 0x145B JUMP JUMPDEST PUSH1 0x0 ADD CALLDATALOAD PUSH32 0x3A8C98EB820DE2BC0F92E6C44A3BC0245111E8D203E7AA5E8F2CB783B61CA124 CALLER DUP6 DUP6 DUP6 DUP2 DUP2 LT PUSH2 0x66F JUMPI PUSH2 0x66E PUSH2 0x141D JUMP JUMPDEST JUMPDEST SWAP1 POP PUSH1 0x20 MUL DUP2 ADD SWAP1 PUSH2 0x681 SWAP2 SWAP1 PUSH2 0x145B JUMP JUMPDEST DUP1 PUSH1 0x20 ADD SWAP1 PUSH2 0x690 SWAP2 SWAP1 PUSH2 0x1483 JUMP JUMPDEST PUSH1 0x40 MLOAD PUSH2 0x69F SWAP4 SWAP3 SWAP2 SWAP1 PUSH2 0x1522 JUMP JUMPDEST PUSH1 0x40 MLOAD DUP1 SWAP2 SUB SWAP1 LOG2 DUP1 DUP1 PUSH1 0x1 ADD SWAP2 POP POP PUSH2 0x606 JUMP JUMPDEST POP POP POP JUMP JUMPDEST PUSH1 0x0 DUP1 SHL PUSH2 0x6C6 DUP2 PUSH2 0x8A6 JUMP JUMPDEST DUP2 PUSH1 0x1 DUP2 SWAP1 SSTORE POP POP POP JUMP JUMPDEST PUSH1 0x0 DUP1 PUSH1 0x0 DUP5 DUP2 MSTORE PUSH1 0x20 ADD SWAP1 DUP2 MSTORE PUSH1 0x20 ADD PUSH1 0x0 KECCAK256 PUSH1 0x0 ADD PUSH1 0x0 DUP4 PUSH20 0xFFFFFFFFFFFFFFFFFFFFFFFFFFFFFFFFFFFFFFFF AND PUSH20 0xFFFFFFFFFFFFFFFFFFFFFFFFFFFFFFFFFFFFFFFF AND DUP2 MSTORE PUSH1 0x20 ADD SWAP1 DUP2 MSTORE PUSH1 0x20 ADD PUSH1 0x0 KECCAK256 PUSH1 0x0 SWAP1 SLOAD SWAP1 PUSH2 0x100 EXP SWAP1 DIV PUSH1 0xFF AND SWAP1 POP SWAP3 SWAP2 POP POP JUMP JUMPDEST PUSH1 0x1 SLOAD CALLVALUE LT ISZERO PUSH2 0x780 JUMPI PUSH1 0x40 MLOAD PUSH32 0x8C379A000000000000000000000000000000000000000000000000000000000 DUP2 MSTORE PUSH1 0x4 ADD PUSH2 0x777 SWAP1 PUSH2 0x15A0 JUMP JUMPDEST PUSH1 0x40 MLOAD DUP1 SWAP2 SUB SWAP1 REVERT JUMPDEST PUSH32 0x6C77C4E5E031DCA0C4944909E0D4D343C9C5B16EDA4EF1D4BE0762693E026722 CALLER DUP3 PUSH1 0x0 ADD MLOAD DUP4 PUSH1 0x40 ADD MLOAD CALLVALUE CHAINID DUP7 PUSH1 0x20 ADD MLOAD DUP8 PUSH1 0x60 ADD MLOAD DUP9 PUSH1 0x80 ADD MLOAD DUP10 PUSH1 0xA0 ADD MLOAD PUSH1 0x40 MLOAD PUSH2 0x7D7 SWAP10 SWAP9 SWAP8 SWAP7 SWAP6 SWAP5 SWAP4 SWAP3 SWAP2 SWAP1 PUSH2 0x163D JUMP JUMPDEST PUSH1 0x40 MLOAD DUP1 SWAP2 SUB SWAP1 LOG1 POP JUMP JUMPDEST PUSH1 0x0 DUP1 SHL DUP2 JUMP JUMPDEST PUSH1 0x0 PUSH1 0x1 SLOAD SWAP1 POP SWAP1 JUMP JUMPDEST PUSH2 0x7FC DUP3 PUSH2 0x547 JUMP JUMPDEST PUSH2 0x805 DUP2 PUSH2 0x8A6 JUMP JUMPDEST PUSH2 0x80F DUP4 DUP4 PUSH2 0xA1D JUMP JUMPDEST POP POP POP POP JUMP JUMPDEST PUSH1 0x0 JUMPDEST DUP3 DUP3 SWAP1 POP DUP2 LT ISZERO PUSH2 0x8A1 JUMPI DUP3 DUP3 DUP3 DUP2 DUP2 LT PUSH2 0x836 JUMPI PUSH2 0x835 PUSH2 0x141D JUMP JUMPDEST JUMPDEST SWAP1 POP PUSH1 0xA0 MUL ADD PUSH1 0x0 ADD CALLDATALOAD PUSH32 0x8FEFDA2F6C146DF62EFA1DE95F8FF0B9C29AE07B9846E61FBCE6E618897397FF CALLER DUP6 DUP6 DUP6 DUP2 DUP2 LT PUSH2 0x875 JUMPI PUSH2 0x874 PUSH2 0x141D JUMP JUMPDEST JUMPDEST SWAP1 POP PUSH1 0xA0 MUL ADD PUSH1 0x20 ADD PUSH1 0x40 MLOAD PUSH2 0x88C SWAP3 SWAP2 SWAP1 PUSH2 0x180F JUMP JUMPDEST PUSH1 0x40 MLOAD DUP1 SWAP2 SUB SWAP1 LOG2 DUP1 DUP1 PUSH1 0x1 ADD SWAP2 POP POP PUSH2 0x818 JUMP JUMPDEST POP POP POP JUMP JUMPDEST PUSH2 0x8B7 DUP2 PUSH2 0x8B2 PUSH2 0xA15 JUMP JUMPDEST PUSH2 0xB0F JUMP JUMPDEST POP JUMP JUMPDEST PUSH1 0x0 PUSH32 0x1FFC9A700000000000000000000000000000000000000000000000000000000 PUSH28 0xFFFFFFFFFFFFFFFFFFFFFFFFFFFFFFFFFFFFFFFFFFFFFFFFFFFFFFFF NOT AND DUP3 PUSH28 0xFFFFFFFFFFFFFFFFFFFFFFFFFFFFFFFFFFFFFFFFFFFFFFFFFFFFFFFF NOT AND EQ SWAP1 POP SWAP2 SWAP1 POP JUMP JUMPDEST PUSH1 0x0 PUSH2 0x930 DUP4 DUP4 PUSH2 0x6D1 JUMP JUMPDEST PUSH2 0xA0A JUMPI PUSH1 0x1 PUSH1 0x0 DUP1 DUP6 DUP2 MSTORE PUSH1 0x20 ADD SWAP1 DUP2 MSTORE PUSH1 0x20 ADD PUSH1 0x0 KECCAK256 PUSH1 0x0 ADD PUSH1 0x0 DUP5 PUSH20 0xFFFFFFFFFFFFFFFFFFFFFFFFFFFFFFFFFFFFFFFF AND PUSH20 0xFFFFFFFFFFFFFFFFFFFFFFFFFFFFFFFFFFFFFFFF AND DUP2 MSTORE PUSH1 0x20 ADD SWAP1 DUP2 MSTORE PUSH1 0x20 ADD PUSH1 0x0 KECCAK256 PUSH1 0x0 PUSH2 0x100 EXP DUP2 SLOAD DUP2 PUSH1 0xFF MUL NOT AND SWAP1 DUP4 ISZERO ISZERO MUL OR SWAP1 SSTORE POP PUSH2 0x9A7 PUSH2 0xA15 JUMP JUMPDEST PUSH20 0xFFFFFFFFFFFFFFFFFFFFFFFFFFFFFFFFFFFFFFFF AND DUP3 PUSH20 0xFFFFFFFFFFFFFFFFFFFFFFFFFFFFFFFFFFFFFFFF AND DUP5 PUSH32 0x2F8788117E7EFF1D82E926EC794901D17C78024A50270940304540A733656F0D PUSH1 0x40 MLOAD PUSH1 0x40 MLOAD DUP1 SWAP2 SUB SWAP1 LOG4 PUSH1 0x1 SWAP1 POP PUSH2 0xA0F JUMP JUMPDEST PUSH1 0x0 SWAP1 POP JUMPDEST SWAP3 SWAP2 POP POP JUMP JUMPDEST PUSH1 0x0 CALLER SWAP1 POP SWAP1 JUMP JUMPDEST PUSH1 0x0 PUSH2 0xA29 DUP4 DUP4 PUSH2 0x6D1 JUMP JUMPDEST ISZERO PUSH2 0xB04 JUMPI PUSH1 0x0 DUP1 PUSH1 0x0 DUP6 DUP2 MSTORE PUSH1 0x20 ADD SWAP1 DUP2 MSTORE PUSH1 0x20 ADD PUSH1 0x0 KECCAK256 PUSH1 0x0 ADD PUSH1 0x0 DUP5 PUSH20 0xFFFFFFFFFFFFFFFFFFFFFFFFFFFFFFFFFFFFFFFF AND PUSH20 0xFFFFFFFFFFFFFFFFFFFFFFFFFFFFFFFFFFFFFFFF AND DUP2 MSTORE PUSH1 0x20 ADD SWAP1 DUP2 MSTORE PUSH1 0x20 ADD PUSH1 0x0 KECCAK256 PUSH1 0x0 PUSH2 0x100 EXP DUP2 SLOAD DUP2 PUSH1 0xFF MUL NOT AND SWAP1 DUP4 ISZERO ISZERO MUL OR SWAP1 SSTORE POP PUSH2 0xAA1 PUSH2 0xA15 JUMP JUMPDEST PUSH20 0xFFFFFFFFFFFFFFFFFFFFFFFFFFFFFFFFFFFFFFFF AND DUP3 PUSH20 0xFFFFFFFFFFFFFFFFFFFFFFFFFFFFFFFFFFFFFFFF AND DUP5 PUSH32 0xF6391F5C32D9C69D2A47EA670B442974B53935D1EDC7FD64EB21E047A839171B PUSH1 0x40 MLOAD PUSH1 0x40 MLOAD DUP1 SWAP2 SUB SWAP1 LOG4 PUSH1 0x1 SWAP1 POP PUSH2 0xB09 JUMP JUMPDEST PUSH1 0x0 SWAP1 POP JUMPDEST SWAP3 SWAP2 POP POP JUMP JUMPDEST PUSH2 0xB19 DUP3 DUP3 PUSH2 0x6D1 JUMP JUMPDEST PUSH2 0xB5C JUMPI DUP1 DUP3 PUSH1 0x40 MLOAD PUSH32 0xE2517D3F00000000000000000000000000000000000000000000000000000000 DUP2 MSTORE PUSH1 0x4 ADD PUSH2 0xB53 SWAP3 SWAP2 SWAP1 PUSH2 0x1838 JUMP JUMPDEST PUSH1 0x40 MLOAD DUP1 SWAP2 SUB SWAP1 REVERT JUMPDEST POP POP JUMP JUMPDEST PUSH1 0x0 PUSH1 0x40 MLOAD SWAP1 POP SWAP1 JUMP JUMPDEST PUSH1 0x0 DUP1 REVERT JUMPDEST PUSH1 0x0 DUP1 REVERT JUMPDEST PUSH1 0x0 DUP2 SWAP1 POP SWAP2 SWAP1 POP JUMP JUMPDEST PUSH2 0xB87 DUP2 PUSH2 0xB74 JUMP JUMPDEST DUP2 EQ PUSH2 0xB92 JUMPI PUSH1 0x0 DUP1 REVERT JUMPDEST POP JUMP JUMPDEST PUSH1 0x0 DUP2 CALLDATALOAD SWAP1 POP PUSH2 0xBA4 DUP2 PUSH2 0xB7E JUMP JUMPDEST SWAP3 SWAP2 POP POP JUMP JUMPDEST PUSH1 0x0 PUSH20 0xFFFFFFFFFFFFFFFFFFFFFFFFFFFFFFFFFFFFFFFF DUP3 AND SWAP1 POP SWAP2 SWAP1 POP JUMP JUMPDEST PUSH1 0x0 PUSH2 0xBD5 DUP3 PUSH2 0xBAA JUMP JUMPDEST SWAP1 POP SWAP2 SWAP1 POP JUMP JUMPDEST PUSH2 0xBE5 DUP2 PUSH2 0xBCA JUMP JUMPDEST DUP2 EQ PUSH2 0xBF0 JUMPI PUSH1 0x0 DUP1 REVERT JUMPDEST POP JUMP JUMPDEST PUSH1 0x0 DUP2 CALLDATALOAD SWAP1 POP PUSH2 0xC02 DUP2 PUSH2 0xBDC JUMP JUMPDEST SWAP3 SWAP2 POP POP JUMP JUMPDEST PUSH1 0x0 DUP1 PUSH1 0x40 DUP4 DUP6 SUB SLT ISZERO PUSH2 0xC1F JUMPI PUSH2 0xC1E PUSH2 0xB6A JUMP JUMPDEST JUMPDEST PUSH1 0x0 PUSH2 0xC2D DUP6 DUP3 DUP7 ADD PUSH2 0xB95 JUMP JUMPDEST SWAP3 POP POP PUSH1 0x20 PUSH2 0xC3E DUP6 DUP3 DUP7 ADD PUSH2 0xBF3 JUMP JUMPDEST SWAP2 POP POP SWAP3 POP SWAP3 SWAP1 POP JUMP JUMPDEST PUSH1 0x0 PUSH32 0xFFFFFFFF00000000000000000000000000000000000000000000000000000000 DUP3 AND SWAP1 POP SWAP2 SWAP1 POP JUMP JUMPDEST PUSH2 0xC7D DUP2 PUSH2 0xC48 JUMP JUMPDEST DUP2 EQ PUSH2 0xC88 JUMPI PUSH1 0x0 DUP1 REVERT JUMPDEST POP JUMP JUMPDEST PUSH1 0x0 DUP2 CALLDATALOAD SWAP1 POP PUSH2 0xC9A DUP2 PUSH2 0xC74 JUMP JUMPDEST SWAP3 SWAP2 POP POP JUMP JUMPDEST PUSH1 0x0 PUSH1 0x20 DUP3 DUP5 SUB SLT ISZERO PUSH2 0xCB6 JUMPI PUSH2 0xCB5 PUSH2 0xB6A JUMP JUMPDEST JUMPDEST PUSH1 0x0 PUSH2 0xCC4 DUP5 DUP3 DUP6 ADD PUSH2 0xC8B JUMP JUMPDEST SWAP2 POP POP SWAP3 SWAP2 POP POP JUMP JUMPDEST PUSH1 0x0 DUP2 ISZERO ISZERO SWAP1 POP SWAP2 SWAP1 POP JUMP JUMPDEST PUSH2 0xCE2 DUP2 PUSH2 0xCCD JUMP JUMPDEST DUP3 MSTORE POP POP JUMP JUMPDEST PUSH1 0x0 PUSH1 0x20 DUP3 ADD SWAP1 POP PUSH2 0xCFD PUSH1 0x0 DUP4 ADD DUP5 PUSH2 0xCD9 JUMP JUMPDEST SWAP3 SWAP2 POP POP JUMP JUMPDEST PUSH1 0x0 DUP2 SWAP1 POP SWAP2 SWAP1 POP JUMP JUMPDEST PUSH2 0xD16 DUP2 PUSH2 0xD03 JUMP JUMPDEST DUP2 EQ PUSH2 0xD21 JUMPI PUSH1 0x0 DUP1 REVERT JUMPDEST POP JUMP JUMPDEST PUSH1 0x0 DUP2 CALLDATALOAD SWAP1 POP PUSH2 0xD33 DUP2 PUSH2 0xD0D JUMP JUMPDEST SWAP3 SWAP2 POP POP JUMP JUMPDEST PUSH1 0x0 PUSH1 0x20 DUP3 DUP5 SUB SLT ISZERO PUSH2 0xD4F JUMPI PUSH2 0xD4E PUSH2 0xB6A JUMP JUMPDEST JUMPDEST PUSH1 0x0 PUSH2 0xD5D DUP5 DUP3 DUP6 ADD PUSH2 0xD24 JUMP JUMPDEST SWAP2 POP POP SWAP3 SWAP2 POP POP JUMP JUMPDEST PUSH2 0xD6F DUP2 PUSH2 0xD03 JUMP JUMPDEST DUP3 MSTORE POP POP JUMP JUMPDEST PUSH1 0x0 PUSH1 0x20 DUP3 ADD SWAP1 POP PUSH2 0xD8A PUSH1 0x0 DUP4 ADD DUP5 PUSH2 0xD66 JUMP JUMPDEST SWAP3 SWAP2 POP POP JUMP JUMPDEST PUSH1 0x0 DUP1 PUSH1 0x40 DUP4 DUP6 SUB SLT ISZERO PUSH2 0xDA7 JUMPI PUSH2 0xDA6 PUSH2 0xB6A JUMP JUMPDEST JUMPDEST PUSH1 0x0 PUSH2 0xDB5 DUP6 DUP3 DUP7 ADD PUSH2 0xD24 JUMP JUMPDEST SWAP3 POP POP PUSH1 0x20 PUSH2 0xDC6 DUP6 DUP3 DUP7 ADD PUSH2 0xBF3 JUMP JUMPDEST SWAP2 POP POP SWAP3 POP SWAP3 SWAP1 POP JUMP JUMPDEST PUSH1 0x0 DUP1 REVERT JUMPDEST PUSH1 0x0 DUP1 REVERT JUMPDEST PUSH1 0x0 DUP1 REVERT JUMPDEST PUSH1 0x0 DUP1 DUP4 PUSH1 0x1F DUP5 ADD SLT PUSH2 0xDF5 JUMPI PUSH2 0xDF4 PUSH2 0xDD0 JUMP JUMPDEST JUMPDEST DUP3 CALLDATALOAD SWAP1 POP PUSH8 0xFFFFFFFFFFFFFFFF DUP2 GT ISZERO PUSH2 0xE12 JUMPI PUSH2 0xE11 PUSH2 0xDD5 JUMP JUMPDEST JUMPDEST PUSH1 0x20 DUP4 ADD SWAP2 POP DUP4 PUSH1 0x20 DUP3 MUL DUP4 ADD GT ISZERO PUSH2 0xE2E JUMPI PUSH2 0xE2D PUSH2 0xDDA JUMP JUMPDEST JUMPDEST SWAP3 POP SWAP3 SWAP1 POP JUMP JUMPDEST PUSH1 0x0 DUP1 PUSH1 0x20 DUP4 DUP6 SUB SLT ISZERO PUSH2 0xE4C JUMPI PUSH2 0xE4B PUSH2 0xB6A JUMP JUMPDEST JUMPDEST PUSH1 0x0 DUP4 ADD CALLDATALOAD PUSH8 0xFFFFFFFFFFFFFFFF DUP2 GT ISZERO PUSH2 0xE6A JUMPI PUSH2 0xE69 PUSH2 0xB6F JUMP JUMPDEST JUMPDEST PUSH2 0xE76 DUP6 DUP3 DUP7 ADD PUSH2 0xDDF JUMP JUMPDEST SWAP3 POP SWAP3 POP POP SWAP3 POP SWAP3 SWAP1 POP JUMP JUMPDEST PUSH1 0x0 PUSH1 0x20 DUP3 DUP5 SUB SLT ISZERO PUSH2 0xE98 JUMPI PUSH2 0xE97 PUSH2 0xB6A JUMP JUMPDEST JUMPDEST PUSH1 0x0 PUSH2 0xEA6 DUP5 DUP3 DUP6 ADD PUSH2 0xB95 JUMP JUMPDEST SWAP2 POP POP SWAP3 SWAP2 POP POP JUMP JUMPDEST PUSH1 0x0 DUP1 REVERT JUMPDEST PUSH1 0x0 PUSH1 0x1F NOT PUSH1 0x1F DUP4 ADD AND SWAP1 POP SWAP2 SWAP1 POP JUMP JUMPDEST PUSH32 0x4E487B7100000000000000000000000000000000000000000000000000000000 PUSH1 0x0 MSTORE PUSH1 0x41 PUSH1 0x4 MSTORE PUSH1 0x24 PUSH1 0x0 REVERT JUMPDEST PUSH2 0xEFD DUP3 PUSH2 0xEB4 JUMP JUMPDEST DUP2 ADD DUP2 DUP2 LT PUSH8 0xFFFFFFFFFFFFFFFF DUP3 GT OR ISZERO PUSH2 0xF1C JUMPI PUSH2 0xF1B PUSH2 0xEC5 JUMP JUMPDEST JUMPDEST DUP1 PUSH1 0x40 MSTORE POP POP POP JUMP JUMPDEST PUSH1 0x0 PUSH2 0xF2F PUSH2 0xB60 JUMP JUMPDEST SWAP1 POP PUSH2 0xF3B DUP3 DUP3 PUSH2 0xEF4 JUMP JUMPDEST SWAP2 SWAP1 POP JUMP JUMPDEST PUSH1 0x0 DUP1 REVERT JUMPDEST PUSH1 0x0 DUP1 REVERT JUMPDEST PUSH1 0x0 PUSH8 0xFFFFFFFFFFFFFFFF DUP3 GT ISZERO PUSH2 0xF65 JUMPI PUSH2 0xF64 PUSH2 0xEC5 JUMP JUMPDEST JUMPDEST PUSH2 0xF6E DUP3 PUSH2 0xEB4 JUMP JUMPDEST SWAP1 POP PUSH1 0x20 DUP2 ADD SWAP1 POP SWAP2 SWAP1 POP JUMP JUMPDEST DUP3 DUP2 DUP4 CALLDATACOPY PUSH1 0x0 DUP4 DUP4 ADD MSTORE POP POP POP JUMP JUMPDEST PUSH1 0x0 PUSH2 0xF9D PUSH2 0xF98 DUP5 PUSH2 0xF4A JUMP JUMPDEST PUSH2 0xF25 JUMP JUMPDEST SWAP1 POP DUP3 DUP2 MSTORE PUSH1 0x20 DUP2 ADD DUP5 DUP5 DUP5 ADD GT ISZERO PUSH2 0xFB9 JUMPI PUSH2 0xFB8 PUSH2 0xF45 JUMP JUMPDEST JUMPDEST PUSH2 0xFC4 DUP5 DUP3 DUP6 PUSH2 0xF7B JUMP JUMPDEST POP SWAP4 SWAP3 POP POP POP JUMP JUMPDEST PUSH1 0x0 DUP3 PUSH1 0x1F DUP4 ADD SLT PUSH2 0xFE1 JUMPI PUSH2 0xFE0 PUSH2 0xDD0 JUMP JUMPDEST JUMPDEST DUP2 CALLDATALOAD PUSH2 0xFF1 DUP5 DUP3 PUSH1 0x20 DUP7 ADD PUSH2 0xF8A JUMP JUMPDEST SWAP2 POP POP SWAP3 SWAP2 POP POP JUMP JUMPDEST PUSH1 0x0 PUSH4 0xFFFFFFFF DUP3 AND SWAP1 POP SWAP2 SWAP1 POP JUMP JUMPDEST PUSH2 0x1013 DUP2 PUSH2 0xFFA JUMP JUMPDEST DUP2 EQ PUSH2 0x101E JUMPI PUSH1 0x0 DUP1 REVERT JUMPDEST POP JUMP JUMPDEST PUSH1 0x0 DUP2 CALLDATALOAD SWAP1 POP PUSH2 0x1030 DUP2 PUSH2 0x100A JUMP JUMPDEST SWAP3 SWAP2 POP POP JUMP JUMPDEST PUSH1 0x0 PUSH1 0xC0 DUP3 DUP5 SUB SLT ISZERO PUSH2 0x104C JUMPI PUSH2 0x104B PUSH2 0xEAF JUMP JUMPDEST JUMPDEST PUSH2 0x1056 PUSH1 0xC0 PUSH2 0xF25 JUMP JUMPDEST SWAP1 POP PUSH1 0x0 PUSH2 0x1066 DUP5 DUP3 DUP6 ADD PUSH2 0xD24 JUMP JUMPDEST PUSH1 0x0 DUP4 ADD MSTORE POP PUSH1 0x20 DUP3 ADD CALLDATALOAD PUSH8 0xFFFFFFFFFFFFFFFF DUP2 GT ISZERO PUSH2 0x108A JUMPI PUSH2 0x1089 PUSH2 0xF40 JUMP JUMPDEST JUMPDEST PUSH2 0x1096 DUP5 DUP3 DUP6 ADD PUSH2 0xFCC JUMP JUMPDEST PUSH1 0x20 DUP4 ADD MSTORE POP PUSH1 0x40 PUSH2 0x10AA DUP5 DUP3 DUP6 ADD PUSH2 0x1021 JUMP JUMPDEST PUSH1 0x40 DUP4 ADD MSTORE POP PUSH1 0x60 DUP3 ADD CALLDATALOAD PUSH8 0xFFFFFFFFFFFFFFFF DUP2 GT ISZERO PUSH2 0x10CE JUMPI PUSH2 0x10CD PUSH2 0xF40 JUMP JUMPDEST JUMPDEST PUSH2 0x10DA DUP5 DUP3 DUP6 ADD PUSH2 0xFCC JUMP JUMPDEST PUSH1 0x60 DUP4 ADD MSTORE POP PUSH1 0x80 DUP3 ADD CALLDATALOAD PUSH8 0xFFFFFFFFFFFFFFFF DUP2 GT ISZERO PUSH2 0x10FE JUMPI PUSH2 0x10FD PUSH2 0xF40 JUMP JUMPDEST JUMPDEST PUSH2 0x110A DUP5 DUP3 DUP6 ADD PUSH2 0xFCC JUMP JUMPDEST PUSH1 0x80 DUP4 ADD MSTORE POP PUSH1 0xA0 DUP3 ADD CALLDATALOAD PUSH8 0xFFFFFFFFFFFFFFFF DUP2 GT ISZERO PUSH2 0x112E JUMPI PUSH2 0x112D PUSH2 0xF40 JUMP JUMPDEST JUMPDEST PUSH2 0x113A DUP5 DUP3 DUP6 ADD PUSH2 0xFCC JUMP JUMPDEST PUSH1 0xA0 DUP4 ADD MSTORE POP SWAP3 SWAP2 POP POP JUMP JUMPDEST PUSH1 0x0 PUSH1 0x20 DUP3 DUP5 SUB SLT ISZERO PUSH2 0x115C JUMPI PUSH2 0x115B PUSH2 0xB6A JUMP JUMPDEST JUMPDEST PUSH1 0x0 DUP3 ADD CALLDATALOAD PUSH8 0xFFFFFFFFFFFFFFFF DUP2 GT ISZERO PUSH2 0x117A JUMPI PUSH2 0x1179 PUSH2 0xB6F JUMP JUMPDEST JUMPDEST PUSH2 0x1186 DUP5 DUP3 DUP6 ADD PUSH2 0x1036 JUMP JUMPDEST SWAP2 POP POP SWAP3 SWAP2 POP POP JUMP JUMPDEST PUSH2 0x1198 DUP2 PUSH2 0xB74 JUMP JUMPDEST DUP3 MSTORE POP POP JUMP JUMPDEST PUSH1 0x0 PUSH1 0x20 DUP3 ADD SWAP1 POP PUSH2 0x11B3 PUSH1 0x0 DUP4 ADD DUP5 PUSH2 0x118F JUMP JUMPDEST SWAP3 SWAP2 POP POP JUMP JUMPDEST PUSH1 0x0 DUP1 DUP4 PUSH1 0x1F DUP5 ADD SLT PUSH2 0x11CF JUMPI PUSH2 0x11CE PUSH2 0xDD0 JUMP JUMPDEST JUMPDEST DUP3 CALLDATALOAD SWAP1 POP PUSH8 0xFFFFFFFFFFFFFFFF DUP2 GT ISZERO PUSH2 0x11EC JUMPI PUSH2 0x11EB PUSH2 0xDD5 JUMP JUMPDEST JUMPDEST PUSH1 0x20 DUP4 ADD SWAP2 POP DUP4 PUSH1 0xA0 DUP3 MUL DUP4 ADD GT ISZERO PUSH2 0x1208 JUMPI PUSH2 0x1207 PUSH2 0xDDA JUMP JUMPDEST JUMPDEST SWAP3 POP SWAP3 SWAP1 POP JUMP JUMPDEST PUSH1 0x0 DUP1 PUSH1 0x20 DUP4 DUP6 SUB SLT ISZERO PUSH2 0x1226 JUMPI PUSH2 0x1225 PUSH2 0xB6A JUMP JUMPDEST JUMPDEST PUSH1 0x0 DUP4 ADD CALLDATALOAD PUSH8 0xFFFFFFFFFFFFFFFF DUP2 GT ISZERO PUSH2 0x1244 JUMPI PUSH2 0x1243 PUSH2 0xB6F JUMP JUMPDEST JUMPDEST PUSH2 0x1250 DUP6 DUP3 DUP7 ADD PUSH2 0x11B9 JUMP JUMPDEST SWAP3 POP SWAP3 POP POP SWAP3 POP SWAP3 SWAP1 POP JUMP JUMPDEST PUSH1 0x0 DUP3 DUP3 MSTORE PUSH1 0x20 DUP3 ADD SWAP1 POP SWAP3 SWAP2 POP POP JUMP JUMPDEST PUSH32 0x496E76616C696420726563656976657220616464726573730000000000000000 PUSH1 0x0 DUP3 ADD MSTORE POP JUMP JUMPDEST PUSH1 0x0 PUSH2 0x12A3 PUSH1 0x18 DUP4 PUSH2 0x125C JUMP JUMPDEST SWAP2 POP PUSH2 0x12AE DUP3 PUSH2 0x126D JUMP JUMPDEST PUSH1 0x20 DUP3 ADD SWAP1 POP SWAP2 SWAP1 POP JUMP JUMPDEST PUSH1 0x0 PUSH1 0x20 DUP3 ADD SWAP1 POP DUP2 DUP2 SUB PUSH1 0x0 DUP4 ADD MSTORE PUSH2 0x12D2 DUP2 PUSH2 0x1296 JUMP JUMPDEST SWAP1 POP SWAP2 SWAP1 POP JUMP JUMPDEST PUSH32 0x576974686472617720616D6F756E74206D75737420626520736D616C6C657220 PUSH1 0x0 DUP3 ADD MSTORE PUSH32 0x7468616E20746F74616C2062616C616E636520696E20636F6E74726163740000 PUSH1 0x20 DUP3 ADD MSTORE POP JUMP JUMPDEST PUSH1 0x0 PUSH2 0x1335 PUSH1 0x3E DUP4 PUSH2 0x125C JUMP JUMPDEST SWAP2 POP PUSH2 0x1340 DUP3 PUSH2 0x12D9 JUMP JUMPDEST PUSH1 0x40 DUP3 ADD SWAP1 POP SWAP2 SWAP1 POP JUMP JUMPDEST PUSH1 0x0 PUSH1 0x20 DUP3 ADD SWAP1 POP DUP2 DUP2 SUB PUSH1 0x0 DUP4 ADD MSTORE PUSH2 0x1364 DUP2 PUSH2 0x1328 JUMP JUMPDEST SWAP1 POP SWAP2 SWAP1 POP JUMP JUMPDEST PUSH1 0x0 DUP2 SWAP1 POP SWAP3 SWAP2 POP POP JUMP JUMPDEST POP JUMP JUMPDEST PUSH1 0x0 PUSH2 0x1386 PUSH1 0x0 DUP4 PUSH2 0x136B JUMP JUMPDEST SWAP2 POP PUSH2 0x1391 DUP3 PUSH2 0x1376 JUMP JUMPDEST PUSH1 0x0 DUP3 ADD SWAP1 POP SWAP2 SWAP1 POP JUMP JUMPDEST PUSH1 0x0 PUSH2 0x13A7 DUP3 PUSH2 0x1379 JUMP JUMPDEST SWAP2 POP DUP2 SWAP1 POP SWAP2 SWAP1 POP JUMP JUMPDEST PUSH32 0x5472616E73666572206661696C65640000000000000000000000000000000000 PUSH1 0x0 DUP3 ADD MSTORE POP JUMP JUMPDEST PUSH1 0x0 PUSH2 0x13E7 PUSH1 0xF DUP4 PUSH2 0x125C JUMP JUMPDEST SWAP2 POP PUSH2 0x13F2 DUP3 PUSH2 0x13B1 JUMP JUMPDEST PUSH1 0x20 DUP3 ADD SWAP1 POP SWAP2 SWAP1 POP JUMP JUMPDEST PUSH1 0x0 PUSH1 0x20 DUP3 ADD SWAP1 POP DUP2 DUP2 SUB PUSH1 0x0 DUP4 ADD MSTORE PUSH2 0x1416 DUP2 PUSH2 0x13DA JUMP JUMPDEST SWAP1 POP SWAP2 SWAP1 POP JUMP JUMPDEST PUSH32 0x4E487B7100000000000000000000000000000000000000000000000000000000 PUSH1 0x0 MSTORE PUSH1 0x32 PUSH1 0x4 MSTORE PUSH1 0x24 PUSH1 0x0 REVERT JUMPDEST PUSH1 0x0 DUP1 REVERT JUMPDEST PUSH1 0x0 DUP1 REVERT JUMPDEST PUSH1 0x0 DUP1 REVERT JUMPDEST PUSH1 0x0 DUP3 CALLDATALOAD PUSH1 0x1 PUSH1 0x40 SUB DUP4 CALLDATASIZE SUB SUB DUP2 SLT PUSH2 0x1477 JUMPI PUSH2 0x1476 PUSH2 0x144C JUMP JUMPDEST JUMPDEST DUP1 DUP4 ADD SWAP2 POP POP SWAP3 SWAP2 POP POP JUMP JUMPDEST PUSH1 0x0 DUP1 DUP4 CALLDATALOAD PUSH1 0x1 PUSH1 0x20 SUB DUP5 CALLDATASIZE SUB SUB DUP2 SLT PUSH2 0x14A0 JUMPI PUSH2 0x149F PUSH2 0x144C JUMP JUMPDEST JUMPDEST DUP1 DUP5 ADD SWAP3 POP DUP3 CALLDATALOAD SWAP2 POP PUSH8 0xFFFFFFFFFFFFFFFF DUP3 GT ISZERO PUSH2 0x14C2 JUMPI PUSH2 0x14C1 PUSH2 0x1451 JUMP JUMPDEST JUMPDEST PUSH1 0x20 DUP4 ADD SWAP3 POP PUSH1 0x1 DUP3 MUL CALLDATASIZE SUB DUP4 SGT ISZERO PUSH2 0x14DE JUMPI PUSH2 0x14DD PUSH2 0x1456 JUMP JUMPDEST JUMPDEST POP SWAP3 POP SWAP3 SWAP1 POP JUMP JUMPDEST PUSH2 0x14EF DUP2 PUSH2 0xBCA JUMP JUMPDEST DUP3 MSTORE POP POP JUMP JUMPDEST PUSH1 0x0 PUSH2 0x1501 DUP4 DUP6 PUSH2 0x125C JUMP JUMPDEST SWAP4 POP PUSH2 0x150E DUP4 DUP6 DUP5 PUSH2 0xF7B JUMP JUMPDEST PUSH2 0x1517 DUP4 PUSH2 0xEB4 JUMP JUMPDEST DUP5 ADD SWAP1 POP SWAP4 SWAP3 POP POP POP JUMP JUMPDEST PUSH1 0x0 PUSH1 0x40 DUP3 ADD SWAP1 POP PUSH2 0x1537 PUSH1 0x0 DUP4 ADD DUP7 PUSH2 0x14E6 JUMP JUMPDEST DUP2 DUP2 SUB PUSH1 0x20 DUP4 ADD MSTORE PUSH2 0x154A DUP2 DUP5 DUP7 PUSH2 0x14F5 JUMP JUMPDEST SWAP1 POP SWAP5 SWAP4 POP POP POP POP JUMP JUMPDEST PUSH32 0x496E73756666696369656E74206465706F736974000000000000000000000000 PUSH1 0x0 DUP3 ADD MSTORE POP JUMP JUMPDEST PUSH1 0x0 PUSH2 0x158A PUSH1 0x14 DUP4 PUSH2 0x125C JUMP JUMPDEST SWAP2 POP PUSH2 0x1595 DUP3 PUSH2 0x1554 JUMP JUMPDEST PUSH1 0x20 DUP3 ADD SWAP1 POP SWAP2 SWAP1 POP JUMP JUMPDEST PUSH1 0x0 PUSH1 0x20 DUP3 ADD SWAP1 POP DUP2 DUP2 SUB PUSH1 0x0 DUP4 ADD MSTORE PUSH2 0x15B9 DUP2 PUSH2 0x157D JUMP JUMPDEST SWAP1 POP SWAP2 SWAP1 POP JUMP JUMPDEST PUSH2 0x15C9 DUP2 PUSH2 0xFFA JUMP JUMPDEST DUP3 MSTORE POP POP JUMP JUMPDEST PUSH1 0x0 DUP2 MLOAD SWAP1 POP SWAP2 SWAP1 POP JUMP JUMPDEST PUSH1 0x0 JUMPDEST DUP4 DUP2 LT ISZERO PUSH2 0x15F8 JUMPI DUP1 DUP3 ADD MLOAD DUP2 DUP5 ADD MSTORE PUSH1 0x20 DUP2 ADD SWAP1 POP PUSH2 0x15DD JUMP JUMPDEST PUSH1 0x0 DUP5 DUP5 ADD MSTORE POP POP POP POP JUMP JUMPDEST PUSH1 0x0 PUSH2 0x160F DUP3 PUSH2 0x15CF JUMP JUMPDEST PUSH2 0x1619 DUP2 DUP6 PUSH2 0x125C JUMP JUMPDEST SWAP4 POP PUSH2 0x1629 DUP2 DUP6 PUSH1 0x20 DUP7 ADD PUSH2 0x15DA JUMP JUMPDEST PUSH2 0x1632 DUP2 PUSH2 0xEB4 JUMP JUMPDEST DUP5 ADD SWAP2 POP POP SWAP3 SWAP2 POP POP JUMP JUMPDEST PUSH1 0x0 PUSH2 0x120 DUP3 ADD SWAP1 POP PUSH2 0x1653 PUSH1 0x0 DUP4 ADD DUP13 PUSH2 0x14E6 JUMP JUMPDEST PUSH2 0x1660 PUSH1 0x20 DUP4 ADD DUP12 PUSH2 0xD66 JUMP JUMPDEST PUSH2 0x166D PUSH1 0x40 DUP4 ADD DUP11 PUSH2 0x15C0 JUMP JUMPDEST PUSH2 0x167A PUSH1 0x60 DUP4 ADD DUP10 PUSH2 0x118F JUMP JUMPDEST PUSH2 0x1687 PUSH1 0x80 DUP4 ADD DUP9 PUSH2 0x118F JUMP JUMPDEST DUP2 DUP2 SUB PUSH1 0xA0 DUP4 ADD MSTORE PUSH2 0x1699 DUP2 DUP8 PUSH2 0x1604 JUMP JUMPDEST SWAP1 POP DUP2 DUP2 SUB PUSH1 0xC0 DUP4 ADD MSTORE PUSH2 0x16AD DUP2 DUP7 PUSH2 0x1604 JUMP JUMPDEST SWAP1 POP DUP2 DUP2 SUB PUSH1 0xE0 DUP4 ADD MSTORE PUSH2 0x16C1 DUP2 DUP6 PUSH2 0x1604 JUMP JUMPDEST SWAP1 POP DUP2 DUP2 SUB PUSH2 0x100 DUP4 ADD MSTORE PUSH2 0x16D6 DUP2 DUP5 PUSH2 0x1604 JUMP JUMPDEST SWAP1 POP SWAP11 SWAP10 POP POP POP POP POP POP POP POP POP POP JUMP JUMPDEST PUSH1 0x0 DUP3 SWAP1 POP SWAP3 SWAP2 POP POP JUMP JUMPDEST PUSH1 0x0 PUSH2 0x1700 PUSH1 0x20 DUP5 ADD DUP5 PUSH2 0xB95 JUMP JUMPDEST SWAP1 POP SWAP3 SWAP2 POP POP JUMP JUMPDEST PUSH2 0x1711 DUP2 PUSH2 0xB74 JUMP JUMPDEST DUP3 MSTORE POP POP JUMP JUMPDEST PUSH1 0x40 DUP3 ADD PUSH2 0x1728 PUSH1 0x0 DUP4 ADD DUP4 PUSH2 0x16F1 JUMP JUMPDEST PUSH2 0x1735 PUSH1 0x0 DUP6 ADD DUP3 PUSH2 0x1708 JUMP JUMPDEST POP PUSH2 0x1743 PUSH1 0x20 DUP4 ADD DUP4 PUSH2 0x16F1 JUMP JUMPDEST PUSH2 0x1750 PUSH1 0x20 DUP6 ADD DUP3 PUSH2 0x1708 JUMP JUMPDEST POP POP POP POP JUMP JUMPDEST PUSH1 0x0 PUSH1 0xFF DUP3 AND SWAP1 POP SWAP2 SWAP1 POP JUMP JUMPDEST PUSH2 0x176C DUP2 PUSH2 0x1756 JUMP JUMPDEST DUP2 EQ PUSH2 0x1777 JUMPI PUSH1 0x0 DUP1 REVERT JUMPDEST POP JUMP JUMPDEST PUSH1 0x0 DUP2 CALLDATALOAD SWAP1 POP PUSH2 0x1789 DUP2 PUSH2 0x1763 JUMP JUMPDEST SWAP3 SWAP2 POP POP JUMP JUMPDEST PUSH1 0x0 PUSH2 0x179E PUSH1 0x20 DUP5 ADD DUP5 PUSH2 0x177A JUMP JUMPDEST SWAP1 POP SWAP3 SWAP2 POP POP JUMP JUMPDEST PUSH2 0x17AF DUP2 PUSH2 0x1756 JUMP JUMPDEST DUP3 MSTORE POP POP JUMP JUMPDEST PUSH1 0x80 DUP3 ADD PUSH2 0x17C6 PUSH1 0x0 DUP4 ADD DUP4 PUSH2 0x16E6 JUMP JUMPDEST PUSH2 0x17D3 PUSH1 0x0 DUP6 ADD DUP3 PUSH2 0x1717 JUMP JUMPDEST POP PUSH2 0x17E1 PUSH1 0x40 DUP4 ADD DUP4 PUSH2 0x16F1 JUMP JUMPDEST PUSH2 0x17EE PUSH1 0x40 DUP6 ADD DUP3 PUSH2 0x1708 JUMP JUMPDEST POP PUSH2 0x17FC PUSH1 0x60 DUP4 ADD DUP4 PUSH2 0x178F JUMP JUMPDEST PUSH2 0x1809 PUSH1 0x60 DUP6 ADD DUP3 PUSH2 0x17A6 JUMP JUMPDEST POP POP POP POP JUMP JUMPDEST PUSH1 0x0 PUSH1 0xA0 DUP3 ADD SWAP1 POP PUSH2 0x1824 PUSH1 0x0 DUP4 ADD DUP6 PUSH2 0x14E6 JUMP JUMPDEST PUSH2 0x1831 PUSH1 0x20 DUP4 ADD DUP5 PUSH2 0x17B5 JUMP JUMPDEST SWAP4 SWAP3 POP POP POP JUMP JUMPDEST PUSH1 0x0 PUSH1 0x40 DUP3 ADD SWAP1 POP PUSH2 0x184D PUSH1 0x0 DUP4 ADD DUP6 PUSH2 0x14E6 JUMP JUMPDEST PUSH2 0x185A PUSH1 0x20 DUP4 ADD DUP5 PUSH2 0xD66 JUMP JUMPDEST SWAP4 SWAP3 POP POP POP JUMP INVALID LOG2 PUSH5 0x6970667358 0x22 SLT KECCAK256 0x2E 0xEA SWAP11 0xAA 0xCF SWAP14 0xD7 DUP2 SIGNEXTEND 0x1F JUMPI 0xC 0xB6 RETURNDATASIZE PUSH7 0x4BD79569B59FD3 SWAP7 0xDC 0xD9 0xDA NUMBER PUSH1 0x7 0xFB 0x4C RETURN PUSH5 0x736F6C6343 STOP ADDMOD SHL STOP CALLER "
        },
        "methodIdentifiers": {
          "DEFAULT_ADMIN_ROLE()": "a217fddf",
          "getRoleAdmin(bytes32)": "248a9ca3",
          "getSignatureDeposit()": "ae650b95",
          "grantRole(bytes32,address)": "2f2ff15d",
          "hasRole(bytes32,address)": "91d14854",
          "renounceRole(bytes32,address)": "36568abe",
          "respond((bytes32,((uint256,uint256),uint256,uint8))[])": "fb0dc126",
          "respondError((bytes32,string)[])": "43ec0d4c",
          "revokeRole(bytes32,address)": "d547741f",
          "setSignatureDeposit(uint256)": "5f45af88",
          "sign((bytes32,string,uint32,string,string,string))": "a03b5c3b",
          "supportsInterface(bytes4)": "01ffc9a7",
          "withdraw(uint256,address)": "00f714ce"
        }
      },
      "storageLayout": {
        "storage": [
          {
            "astId": 26,
            "contract": "contracts/ChainSignatures.sol:ChainSignatures",
            "label": "_roles",
            "offset": 0,
            "slot": "0",
            "type": "t_mapping(t_bytes32,t_struct(RoleData)21_storage)"
          },
          {
            "astId": 489,
            "contract": "contracts/ChainSignatures.sol:ChainSignatures",
            "label": "signatureDeposit",
            "offset": 0,
            "slot": "1",
            "type": "t_uint256"
          }
        ],
        "types": {
          "t_address": {
            "encoding": "inplace",
            "label": "address",
            "numberOfBytes": "20"
          },
          "t_bool": {
            "encoding": "inplace",
            "label": "bool",
            "numberOfBytes": "1"
          },
          "t_bytes32": {
            "encoding": "inplace",
            "label": "bytes32",
            "numberOfBytes": "32"
          },
          "t_mapping(t_address,t_bool)": {
            "encoding": "mapping",
            "key": "t_address",
            "label": "mapping(address => bool)",
            "numberOfBytes": "32",
            "value": "t_bool"
          },
          "t_mapping(t_bytes32,t_struct(RoleData)21_storage)": {
            "encoding": "mapping",
            "key": "t_bytes32",
            "label": "mapping(bytes32 => struct AccessControl.RoleData)",
            "numberOfBytes": "32",
            "value": "t_struct(RoleData)21_storage"
          },
          "t_struct(RoleData)21_storage": {
            "encoding": "inplace",
            "label": "struct AccessControl.RoleData",
            "members": [
              {
                "astId": 18,
                "contract": "contracts/ChainSignatures.sol:ChainSignatures",
                "label": "hasRole",
                "offset": 0,
                "slot": "0",
                "type": "t_mapping(t_address,t_bool)"
              },
              {
                "astId": 20,
                "contract": "contracts/ChainSignatures.sol:ChainSignatures",
                "label": "adminRole",
                "offset": 0,
                "slot": "1",
                "type": "t_bytes32"
              }
            ],
            "numberOfBytes": "64"
          },
          "t_uint256": {
            "encoding": "inplace",
            "label": "uint256",
            "numberOfBytes": "32"
          }
        }
      }
    }
  }
}